{
  "_format": "hh-sol-artifact-1",
  "contractName": "SVG",
  "sourceName": "contracts/SVG.sol",
  "abi": [
    {
      "inputs": [],
      "stateMutability": "nonpayable",
      "type": "constructor"
    },
    {
      "inputs": [
        {
          "internalType": "uint8[]",
          "name": "solvedBoard",
          "type": "uint8[]"
        },
        {
          "internalType": "string",
          "name": "gridType",
          "type": "string"
        }
      ],
      "name": "generateGrid",
      "outputs": [
        {
          "internalType": "string",
          "name": "",
          "type": "string"
        }
      ],
      "stateMutability": "pure",
      "type": "function"
    },
    {
      "inputs": [
        {
          "internalType": "uint256",
          "name": "value",
          "type": "uint256"
        }
      ],
      "name": "uintToString",
      "outputs": [
        {
          "internalType": "string",
          "name": "",
          "type": "string"
        }
      ],
      "stateMutability": "pure",
      "type": "function"
    }
  ],
  "bytecode": "0x608060405234801561001057600080fd5b50612353806100206000396000f3fe608060405234801561001057600080fd5b50600436106100365760003560e01c8063e248d4571461003b578063e939567914610064575b600080fd5b61004e610049366004610f26565b610077565b60405161005b91906111e5565b60405180910390f35b61004e610072366004610fff565b6101eb565b6060600083516010141561008d575060046100f4565b83516040141561009f575060086100f4565b835161010014156100b2575060106100f4565b60405162461bcd60e51b8152602060048201526012602482015271496e76616c696420626f6172642073697a6560701b60448201526064015b60405180910390fd5b610120836040518060400160405280600a8152602001691cdc5d585c9951dc9a5960b21b81525061030a565b1561013857610130846004610363565b9150506101e5565b61015e83604051806040016040528060048152602001636469636560e01b81525061030a565b1561016e576101308460046104b4565b6101998360405180604001604052806009815260200168686578616772616d7360b81b81525061030a565b156101a9576101308460046107de565b60405162461bcd60e51b8152602060048201526011602482015270496e76616c69642067726964207479706560781b60448201526064016100eb565b92915050565b60608161020f5750506040805180820190915260018152600360fc1b602082015290565b8160005b81156102395780610223816112da565b91506102329050600a83611260565b9150610213565b6000816001600160401b0381111561026157634e487b7160e01b600052604160045260246000fd5b6040519080825280601f01601f19166020018201604052801561028b576020820181803683370190505b5090505b8415610302576102a0600a866112f5565b6102ab906030611248565b60f81b816102b8846112c3565b935083815181106102d957634e487b7160e01b600052603260045260246000fd5b60200101906001600160f81b031916908160001a9053506102fb600a86611260565b945061028f565b949350505050565b60008160405160200161031d9190611017565b60405160208183030381529060405280519060200120836040516020016103449190611017565b6040516020818303038152906040528051906020012014905092915050565b606060006040518060600160405280603e815260200161179c603e9139905060005b8381101561047a5760005b84811015610467576000816103a58785611274565b6103af9190611248565b905060008782815181106103d357634e487b7160e01b600052603260045260246000fd5b6020026020010151905060006103e882610a1a565b90506000816103fb610072876019611274565b610409610072896019611274565b60405160200161041b93929190611138565b6040516020818303038152906040529050868160405160200161043f929190611033565b604051602081830303815290604052965050505050808061045f906112da565b915050610390565b5080610472816112da565b915050610385565b508060405160200161048c919061110e565b60408051601f1981840301815291905290508060006104aa82610d47565b9695505050505050565b606060006040518060c0016040528060405180608001604052806054815260200161134c6054913981526020016040518060c00160405280608881526020016120346088913981526020016040518060e0016040528060ba8152602001611e5a60ba9139815260200160405180610120016040528060ee8152602001611ac360ee913981526020016040518061014001604052806101208152602001611f146101209139815260200160405180610180016040528061015381526020016113a06101539139815250905060006040518060600160405280603e815260200161179c603e9139905060005b848110156107a35760005b85811015610790576000816105be8885611274565b6105c89190611248565b905060608882815181106105ec57634e487b7160e01b600052603260045260246000fd5b602002602001015160ff166001141561060757508451610739565b88828151811061062757634e487b7160e01b600052603260045260246000fd5b602002602001015160ff166002141561064557506020850151610739565b88828151811061066557634e487b7160e01b600052603260045260246000fd5b602002602001015160ff166003141561068357506040850151610739565b8882815181106106a357634e487b7160e01b600052603260045260246000fd5b602002602001015160ff16600414156106c157506060850151610739565b8882815181106106e157634e487b7160e01b600052603260045260246000fd5b602002602001015160ff16600514156106ff57506080850151610739565b88828151811061071f57634e487b7160e01b600052603260045260246000fd5b602002602001015160ff1660061415610739575060a08501515b84610748610072856019611274565b610756610072876019611274565b8360405160200161076a9493929190611062565b604051602081830303815290604052945050508080610788906112da565b9150506105a9565b508061079b816112da565b91505061059e565b50806040516020016107b5919061110e565b60408051601f1981840301815291905290508060006107d382610d47565b979650505050505050565b606060006040518060800160405280604051806102e001604052806102a98152602001611bb16102a991398152602001604051806102e001604052806102a9815260200161181a6102a991398152602001604051806102a0016040528061026281526020016120bc61026291398152602001604051806102e001604052806102a981526020016114f36102a99139815250905060006040518060600160405280603e815260200161179c603e9139905060005b848110156107a35760005b85811015610a07576000816108b18885611274565b6108bb9190611248565b905060608882815181106108df57634e487b7160e01b600052603260045260246000fd5b602002602001015160ff16600114156108fa575084516109b0565b88828151811061091a57634e487b7160e01b600052603260045260246000fd5b602002602001015160ff1660021415610938575060208501516109b0565b88828151811061095857634e487b7160e01b600052603260045260246000fd5b602002602001015160ff1660031415610976575060408501516109b0565b88828151811061099657634e487b7160e01b600052603260045260246000fd5b602002602001015160ff16600414156109b0575060608501515b846109bf610072856019611274565b6109cd610072876019611274565b836040516020016109e19493929190611062565b6040516020818303038152906040529450505080806109ff906112da565b91505061089c565b5080610a12816112da565b915050610891565b60608160ff1660011415610a4b5750506040805180820190915260078152662344393336324160c81b602082015290565b8160ff1660021415610a7a57505060408051808201909152600781526608d0914c4e0d5160ca1b602082015290565b8160ff1660031415610aa857505060408051808201909152600681526508a86627062760d31b602082015290565b8160ff1660041415610ad757505060408051808201909152600781526608d18d10504c8d60ca1b602082015290565b8160ff1660051415610b0657505060408051808201909152600781526608d18d110d0c8d60ca1b602082015290565b8160ff1660061415610b355750506040805180820190915260078152662346314632323360c81b602082015290565b8160ff1660071415610b645750506040805180820190915260078152662341354444304360c81b602082015290565b8160ff1660081415610b935750506040805180820190915260078152660233337423430360cc1b602082015290565b8160ff1660091415610bc25750506040805180820190915260078152662339384430453960c81b602082015290565b8160ff16600a1415610bf157505060408051808201909152600781526608cccc4ccc519160ca1b602082015290565b8160ff16600b1415610c205750506040805180820190915260078152662331443243383560c81b602082015290565b8160ff16600c1415610c4f57505060408051808201909152600781526611a3192319231960c91b602082015290565b8160ff16600d1415610c7e5750506040805180820190915260078152662331413141314160c81b602082015290565b8160ff16600e1415610cad575050604080518082019091526007815266119b989c1a192360c91b602082015290565b8160ff16600f1415610cdc575050604080518082019091526007815266119c981a9b992360c91b602082015290565b8160ff1660101415610d0b5750506040805180820190915260078152660233833313643360cc1b602082015290565b60405162461bcd60e51b8152602060048201526011602482015270496e76616c696420636f6c6f72206b657960781b60448201526064016100eb565b6060815160001415610d6757505060408051602081019091526000815290565b60006040518060600160405280604081526020016117da6040913990506000600384516002610d969190611248565b610da09190611260565b610dab906004611274565b90506000610dba826020611248565b6001600160401b03811115610ddf57634e487b7160e01b600052604160045260246000fd5b6040519080825280601f01601f191660200182016040528015610e09576020820181803683370190505b509050818152600183018586518101602084015b81831015610e775760039283018051603f601282901c811687015160f890811b8552600c83901c8216880151811b6001860152600683901c8216880151811b60028601529116860151901b93820193909352600401610e1d565b600389510660018114610e915760028114610ea257610eae565b613d3d60f01b600119830152610eae565b603d60f81b6000198301525b509398975050505050505050565b600082601f830112610ecc578081fd5b81356001600160401b03811115610ee557610ee5611335565b610ef8601f8201601f1916602001611218565b818152846020838601011115610f0c578283fd5b816020850160208301379081016020019190915292915050565b60008060408385031215610f38578182fd5b82356001600160401b0380821115610f4e578384fd5b818501915085601f830112610f61578384fd5b8135602082821115610f7557610f75611335565b8160051b610f84828201611218565b8381528281019086840183880185018c1015610f9e57898afd5b8997505b85881015610fd1578035935060ff84168414610fbc57898afd5b83835260019790970196918401918401610fa2565b509750505086013592505080821115610fe8578283fd5b50610ff585828601610ebc565b9150509250929050565b600060208284031215611010578081fd5b5035919050565b60008251611029818460208701611293565b9190910192915050565b60008351611045818460208801611293565b835190830190611059818360208801611293565b01949350505050565b60008551611074818460208a01611293565b77078ce40e8e4c2dce6ccdee4da7a44e8e4c2dce6d8c2e8ca560431b90830190815285516110a9816018840160208a01611293565b600160fd1b6018929091019182015284516110cb816019840160208901611293565b6214911f60e91b6019929091019182015283516110ef81601c840160208801611293565b631e17b39f60e11b601c92909101918201526020019695505050505050565b60008251611120818460208701611293565b651e17b9bb339f60d11b920191825250600601919050565b7f3c726563742077696474683d22323522206865696768743d223235222066696c815262361e9160e91b60208201526000845161117c816023850160208901611293565b6411103c1e9160d91b60239184019182015284516111a1816028840160208901611293565b6411103c9e9160d91b6028929091019182015283516111c781602d840160208801611293565b631110179f60e11b602d929091019182015260310195945050505050565b6020815260008251806020840152611204816040850160208701611293565b601f01601f19169190910160400192915050565b604051601f8201601f191681016001600160401b038111828210171561124057611240611335565b604052919050565b6000821982111561125b5761125b611309565b500190565b60008261126f5761126f61131f565b500490565b600081600019048311821515161561128e5761128e611309565b500290565b60005b838110156112ae578181015183820152602001611296565b838111156112bd576000848401525b50505050565b6000816112d2576112d2611309565b506000190190565b60006000198214156112ee576112ee611309565b5060010190565b6000826113045761130461131f565b500690565b634e487b7160e01b600052601160045260246000fd5b634e487b7160e01b600052601260045260246000fd5b634e487b7160e01b600052604160045260246000fdfe3c7376672077696474683d22323522206865696768743d223235223e3c636972636c652063783d2231322e35222063793d2231322e352220723d22322e35222066696c6c3d22626c61636b222f3e3c2f7376673e3c7376672077696474683d22323522206865696768743d223235223e3c636972636c652063783d22362e3235222063793d22362e32352220723d22322e35222066696c6c3d22626c61636b222f3e3c636972636c652063783d2231382e3735222063793d22362e32352220723d22322e35222066696c6c3d22626c61636b222f3e3c636972636c652063783d22362e3235222063793d2231322e352220723d22322e35222066696c6c3d22626c61636b222f3e3c636972636c652063783d2231382e3735222063793d2231322e352220723d22322e35222066696c6c3d22626c61636b222f3e3c636972636c652063783d22362e3235222063793d2231382e37352220723d22322e35222066696c6c3d22626c61636b222f3e3c636972636c652063783d2231382e3735222063793d2231382e37352220723d22322e35222066696c6c3d22626c61636b222f3e3c2f7376673e3c7376672076696577426f783d22302030203235203235222077696474683d22323522206865696768743d223235223e3c6c696e652078313d2234222079313d2236222078323d223130222079323d223622207374726f6b653d22626c61636b22207374726f6b6557696474683d223222202f3e3c6c696e652078313d223135222079313d2236222078323d223231222079323d223622207374726f6b653d22626c61636b22207374726f6b6557696474683d223222202f3e3c6c696e652078313d2234222079313d2239222078323d223231222079323d223922207374726f6b653d22626c61636b22207374726f6b6557696474683d223222202f3e3c6c696e652078313d2234222079313d223132222078323d223231222079323d22313222207374726f6b653d22626c61636b22207374726f6b6557696474683d223222202f3e3c6c696e652078313d2234222079313d223135222078323d223130222079323d22313522207374726f6b653d22626c61636b22207374726f6b6557696474683d223222202f3e3c6c696e652078313d223135222079313d223135222078323d223231222079323d22313522207374726f6b653d22626c61636b22207374726f6b6557696474683d223222202f3e3c6c696e652078313d2234222079313d223138222078323d223231222079323d22313822207374726f6b653d22626c61636b22207374726f6b6557696474683d223222202f3e3c6c696e652078313d2234222079313d223231222078323d223130222079323d22323122207374726f6b653d22626c61636b22207374726f6b6557696474683d223222202f3e3c6c696e652078313d223135222079313d223231222078323d223231222079323d22323122207374726f6b653d22626c61636b22207374726f6b6557696474683d223222202f3e3c2f7376673e3c73766720786d6c6e733d22687474703a2f2f7777772e77332e6f72672f323030302f737667222076696577426f783d223020302031303020313030223e4142434445464748494a4b4c4d4e4f505152535455565758595a6162636465666768696a6b6c6d6e6f707172737475767778797a303132333435363738392b2f3c7376672076696577426f783d22302030203235203235222077696474683d22323522206865696768743d223235223e3c6c696e652078313d2234222079313d2236222078323d223130222079323d223622207374726f6b653d22626c61636b22207374726f6b6557696474683d223222202f3e3c6c696e652078313d223135222079313d2236222078323d223231222079323d223622207374726f6b653d22626c61636b22207374726f6b6557696474683d223222202f3e3c6c696e652078313d2234222079313d2239222078323d223231222079323d223922207374726f6b653d22626c61636b22207374726f6b6557696474683d223222202f3e3c6c696e652078313d2234222079313d223132222078323d223130222079323d22313222207374726f6b653d22626c61636b22207374726f6b6557696474683d223222202f3e3c6c696e652078313d223135222079313d223132222078323d223231222079323d22313222207374726f6b653d22626c61636b22207374726f6b6557696474683d223222202f3e3c6c696e652078313d2234222079313d223135222078323d223231222079323d22313522207374726f6b653d22626c61636b22207374726f6b6557696474683d223222202f3e3c6c696e652078313d2234222079313d223138222078323d223231222079323d22313822207374726f6b653d22626c61636b22207374726f6b6557696474683d223222202f3e3c6c696e652078313d2234222079313d223231222078323d223130222079323d22323122207374726f6b653d22626c61636b22207374726f6b6557696474683d223222202f3e3c6c696e652078313d223135222079313d223231222078323d223231222079323d22323122207374726f6b653d22626c61636b22207374726f6b6557696474683d223222202f3e3c2f7376673e3c7376672077696474683d22323522206865696768743d223235223e3c636972636c652063783d22362e3235222063793d22362e32352220723d22322e35222066696c6c3d22626c61636b222f3e3c636972636c652063783d2231382e3735222063793d22362e32352220723d22322e35222066696c6c3d22626c61636b222f3e3c636972636c652063783d22362e3235222063793d2231382e37352220723d22322e35222066696c6c3d22626c61636b222f3e3c636972636c652063783d2231382e3735222063793d2231382e37352220723d22322e35222066696c6c3d22626c61636b222f3e3c2f7376673e3c7376672076696577426f783d22302030203235203235222077696474683d22323522206865696768743d223235223e3c6c696e652078313d2234222079313d2236222078323d223130222079323d223622207374726f6b653d22626c61636b22207374726f6b6557696474683d223222202f3e3c6c696e652078313d223135222079313d2236222078323d223231222079323d223622207374726f6b653d22626c61636b22207374726f6b6557696474683d223222202f3e3c6c696e652078313d2234222079313d2239222078323d223231222079323d223922207374726f6b653d22626c61636b22207374726f6b6557696474683d223222202f3e3c6c696e652078313d2234222079313d223132222078323d223130222079323d22313222207374726f6b653d22626c61636b22207374726f6b6557696474683d223222202f3e3c6c696e652078313d223135222079313d223132222078323d223231222079323d22313222207374726f6b653d22626c61636b22207374726f6b6557696474683d223222202f3e3c6c696e652078313d2234222079313d223135222078323d223231222079323d22313522207374726f6b653d22626c61636b22207374726f6b6557696474683d223222202f3e3c6c696e652078313d2234222079313d223138222078323d223130222079323d22313822207374726f6b653d22626c61636b22207374726f6b6557696474683d223222202f3e3c6c696e652078313d223135222079313d223138222078323d223231222079323d22313822207374726f6b653d22626c61636b22207374726f6b6557696474683d223222202f3e3c6c696e652078313d2234222079313d223231222078323d223231222079323d22323122207374726f6b653d22626c61636b22207374726f6b6557696474683d223222202f3e3c2f7376673e3c7376672077696474683d22323522206865696768743d223235223e3c636972636c652063783d22362e3235222063793d22362e32352220723d22322e35222066696c6c3d22626c61636b222f3e3c636972636c652063783d2231322e35222063793d2231322e352220723d22322e35222066696c6c3d22626c61636b222f3e3c636972636c652063783d2231382e3735222063793d2231382e37352220723d22322e35222066696c6c3d22626c61636b222f3e3c2f7376673e3c7376672077696474683d22323522206865696768743d223235223e3c636972636c652063783d22362e3235222063793d22362e32352220723d22322e35222066696c6c3d22626c61636b222f3e3c636972636c652063783d2231382e3735222063793d22362e32352220723d22322e35222066696c6c3d22626c61636b222f3e3c636972636c652063783d2231322e35222063793d2231322e352220723d22322e35222066696c6c3d22626c61636b222f3e3c636972636c652063783d22362e3235222063793d2231382e37352220723d22322e35222066696c6c3d22626c61636b222f3e3c636972636c652063783d2231382e3735222063793d2231382e37352220723d22322e35222066696c6c3d22626c61636b222f3e3c2f7376673e3c7376672077696474683d22323522206865696768743d223235223e3c636972636c652063783d22362e3235222063793d22362e32352220723d22322e35222066696c6c3d22626c61636b222f3e3c636972636c652063783d2231382e3735222063793d2231382e37352220723d22322e35222066696c6c3d22626c61636b222f3e3c2f7376673e3c7376672076696577426f783d22302030203235203235222077696474683d22323522206865696768743d223235223e3c6c696e652078313d2234222079313d2236222078323d223130222079323d223622207374726f6b653d22626c61636b22207374726f6b6557696474683d223222202f3e3c6c696e652078313d223135222079313d2236222078323d223231222079323d223622207374726f6b653d22626c61636b22207374726f6b6557696474683d223222202f3e3c6c696e652078313d2234222079313d2239222078323d223231222079323d223922207374726f6b653d22626c61636b22207374726f6b6557696474683d223222202f3e3c6c696e652078313d2234222079313d223132222078323d223130222079323d22313222207374726f6b653d22626c61636b22207374726f6b6557696474683d223222202f3e3c6c696e652078313d223135222079313d223132222078323d223231222079323d22313222207374726f6b653d22626c61636b22207374726f6b6557696474683d223222202f3e3c6c696e652078313d2234222079313d223135222078323d223231222079323d22313522207374726f6b653d22626c61636b22207374726f6b6557696474683d223222202f3e3c6c696e652078313d2234222079313d223138222078323d223231222079323d22313822207374726f6b653d22626c61636b22207374726f6b6557696474683d223222202f3e3c6c696e652078313d2234222079313d223231222078323d223231222079323d22323122207374726f6b653d22626c61636b22207374726f6b6557696474683d223222202f3e3c2f7376673ea26469706673582212208eeff630e786a379d21365e34d5ebdfc215a0a23bb02a6fe2075a9fe86a867ff64736f6c63430008040033",
  "linkReferences": {},
  "deployedLinkReferences": {}
}