{
  "_format": "hh-sol-artifact-1",
  "contractName": "Flippando",
  "sourceName": "contracts/Flippando.sol",
  "abi": [
    {
      "inputs": [
        {
          "internalType": "address",
          "name": "_svgAddress",
          "type": "address"
        },
        {
          "internalType": "address",
          "name": "_flipAddress",
          "type": "address"
        },
        {
          "internalType": "address",
          "name": "_flippandoBundlerAddress",
          "type": "address"
        }
      ],
      "stateMutability": "nonpayable",
      "type": "constructor"
    },
    {
      "anonymous": false,
      "inputs": [
        {
          "indexed": true,
          "internalType": "address",
          "name": "owner",
          "type": "address"
        },
        {
          "indexed": true,
          "internalType": "address",
          "name": "approved",
          "type": "address"
        },
        {
          "indexed": true,
          "internalType": "uint256",
          "name": "tokenId",
          "type": "uint256"
        }
      ],
      "name": "Approval",
      "type": "event"
    },
    {
      "anonymous": false,
      "inputs": [
        {
          "indexed": true,
          "internalType": "address",
          "name": "owner",
          "type": "address"
        },
        {
          "indexed": true,
          "internalType": "address",
          "name": "operator",
          "type": "address"
        },
        {
          "indexed": false,
          "internalType": "bool",
          "name": "approved",
          "type": "bool"
        }
      ],
      "name": "ApprovalForAll",
      "type": "event"
    },
    {
      "anonymous": false,
      "inputs": [
        {
          "components": [
            {
              "internalType": "uint256",
              "name": "boardWidth",
              "type": "uint256"
            },
            {
              "internalType": "uint256",
              "name": "boardHeight",
              "type": "uint256"
            },
            {
              "internalType": "uint256[]",
              "name": "buildingBlocks",
              "type": "uint256[]"
            }
          ],
          "indexed": false,
          "internalType": "struct Artwork",
          "name": "createdArtwork",
          "type": "tuple"
        }
      ],
      "name": "ArtworkCreated",
      "type": "event"
    },
    {
      "anonymous": false,
      "inputs": [
        {
          "indexed": false,
          "internalType": "string",
          "name": "id",
          "type": "string"
        },
        {
          "components": [
            {
              "internalType": "uint8[]",
              "name": "board",
              "type": "uint8[]"
            },
            {
              "internalType": "uint8[]",
              "name": "solvedBoard",
              "type": "uint8[]"
            },
            {
              "internalType": "string",
              "name": "gameLevel",
              "type": "string"
            },
            {
              "internalType": "string",
              "name": "gameType",
              "type": "string"
            },
            {
              "internalType": "address",
              "name": "player",
              "type": "address"
            },
            {
              "internalType": "string",
              "name": "id",
              "type": "string"
            },
            {
              "internalType": "uint256[]",
              "name": "gameTiles",
              "type": "uint256[]"
            }
          ],
          "indexed": false,
          "internalType": "struct Flippando.Game",
          "name": "game",
          "type": "tuple"
        },
        {
          "indexed": true,
          "internalType": "address",
          "name": "player",
          "type": "address"
        }
      ],
      "name": "GameCreated",
      "type": "event"
    },
    {
      "anonymous": false,
      "inputs": [
        {
          "indexed": false,
          "internalType": "string",
          "name": "id",
          "type": "string"
        },
        {
          "components": [
            {
              "internalType": "uint8[]",
              "name": "board",
              "type": "uint8[]"
            },
            {
              "internalType": "uint8[]",
              "name": "solvedBoard",
              "type": "uint8[]"
            },
            {
              "internalType": "string",
              "name": "gameLevel",
              "type": "string"
            },
            {
              "internalType": "string",
              "name": "gameType",
              "type": "string"
            },
            {
              "internalType": "address",
              "name": "player",
              "type": "address"
            },
            {
              "internalType": "string",
              "name": "id",
              "type": "string"
            },
            {
              "internalType": "uint256[]",
              "name": "gameTiles",
              "type": "uint256[]"
            }
          ],
          "indexed": false,
          "internalType": "struct Flippando.Game",
          "name": "game",
          "type": "tuple"
        }
      ],
      "name": "GameSolved",
      "type": "event"
    },
    {
      "anonymous": false,
      "inputs": [
        {
          "indexed": true,
          "internalType": "string",
          "name": "id",
          "type": "string"
        },
        {
          "components": [
            {
              "internalType": "uint8[]",
              "name": "board",
              "type": "uint8[]"
            },
            {
              "internalType": "uint8[]",
              "name": "solvedBoard",
              "type": "uint8[]"
            },
            {
              "internalType": "string",
              "name": "gameLevel",
              "type": "string"
            },
            {
              "internalType": "string",
              "name": "gameType",
              "type": "string"
            },
            {
              "internalType": "address",
              "name": "player",
              "type": "address"
            },
            {
              "internalType": "string",
              "name": "id",
              "type": "string"
            },
            {
              "internalType": "uint256[]",
              "name": "gameTiles",
              "type": "uint256[]"
            }
          ],
          "indexed": false,
          "internalType": "struct Flippando.Game",
          "name": "game",
          "type": "tuple"
        },
        {
          "indexed": false,
          "internalType": "uint32[2]",
          "name": "positions",
          "type": "uint32[2]"
        }
      ],
      "name": "GameState",
      "type": "event"
    },
    {
      "anonymous": false,
      "inputs": [
        {
          "indexed": false,
          "internalType": "string",
          "name": "id",
          "type": "string"
        },
        {
          "indexed": false,
          "internalType": "uint256",
          "name": "tokenId",
          "type": "uint256"
        }
      ],
      "name": "NFTCreated",
      "type": "event"
    },
    {
      "anonymous": false,
      "inputs": [
        {
          "indexed": true,
          "internalType": "address",
          "name": "from",
          "type": "address"
        },
        {
          "indexed": true,
          "internalType": "address",
          "name": "to",
          "type": "address"
        },
        {
          "indexed": true,
          "internalType": "uint256",
          "name": "tokenId",
          "type": "uint256"
        }
      ],
      "name": "Transfer",
      "type": "event"
    },
    {
      "inputs": [
        {
          "internalType": "address",
          "name": "to",
          "type": "address"
        },
        {
          "internalType": "uint256",
          "name": "tokenId",
          "type": "uint256"
        }
      ],
      "name": "approve",
      "outputs": [],
      "stateMutability": "nonpayable",
      "type": "function"
    },
    {
      "inputs": [
        {
          "internalType": "address",
          "name": "owner",
          "type": "address"
        }
      ],
      "name": "balanceOf",
      "outputs": [
        {
          "internalType": "uint256",
          "name": "",
          "type": "uint256"
        }
      ],
      "stateMutability": "view",
      "type": "function"
    },
    {
      "inputs": [
        {
          "internalType": "uint8[]",
          "name": "arr",
          "type": "uint8[]"
        }
      ],
      "name": "boardHasZeroValues",
      "outputs": [
        {
          "internalType": "bool",
          "name": "",
          "type": "bool"
        }
      ],
      "stateMutability": "pure",
      "type": "function"
    },
    {
      "inputs": [
        {
          "internalType": "string",
          "name": "id",
          "type": "string"
        },
        {
          "internalType": "uint256",
          "name": "boardSize",
          "type": "uint256"
        },
        {
          "internalType": "string",
          "name": "gameType",
          "type": "string"
        }
      ],
      "name": "create_game",
      "outputs": [],
      "stateMutability": "nonpayable",
      "type": "function"
    },
    {
      "inputs": [
        {
          "internalType": "string",
          "name": "id",
          "type": "string"
        }
      ],
      "name": "create_nft",
      "outputs": [],
      "stateMutability": "nonpayable",
      "type": "function"
    },
    {
      "inputs": [
        {
          "internalType": "string",
          "name": "gameType",
          "type": "string"
        }
      ],
      "name": "create_single_test_nft",
      "outputs": [],
      "stateMutability": "nonpayable",
      "type": "function"
    },
    {
      "inputs": [],
      "name": "flip",
      "outputs": [
        {
          "internalType": "contract IFLIP",
          "name": "",
          "type": "address"
        }
      ],
      "stateMutability": "view",
      "type": "function"
    },
    {
      "inputs": [
        {
          "internalType": "string",
          "name": "id",
          "type": "string"
        },
        {
          "internalType": "uint32[2]",
          "name": "boardPositions",
          "type": "uint32[2]"
        }
      ],
      "name": "flip_tiles",
      "outputs": [],
      "stateMutability": "nonpayable",
      "type": "function"
    },
    {
      "inputs": [],
      "name": "flippandoBundler",
      "outputs": [
        {
          "internalType": "contract IFLIPPANDOBUNDLER",
          "name": "",
          "type": "address"
        }
      ],
      "stateMutability": "view",
      "type": "function"
    },
    {
      "inputs": [
        {
          "internalType": "string",
          "name": "",
          "type": "string"
        }
      ],
      "name": "games",
      "outputs": [
        {
          "internalType": "string",
          "name": "gameLevel",
          "type": "string"
        },
        {
          "internalType": "string",
          "name": "gameType",
          "type": "string"
        },
        {
          "internalType": "address",
          "name": "player",
          "type": "address"
        },
        {
          "internalType": "string",
          "name": "id",
          "type": "string"
        }
      ],
      "stateMutability": "view",
      "type": "function"
    },
    {
      "inputs": [
        {
          "internalType": "uint256",
          "name": "tokenId",
          "type": "uint256"
        },
        {
          "internalType": "uint8[]",
          "name": "testBoard",
          "type": "uint8[]"
        },
        {
          "internalType": "string",
          "name": "gameType",
          "type": "string"
        }
      ],
      "name": "generateTestTokenURI",
      "outputs": [
        {
          "internalType": "string",
          "name": "",
          "type": "string"
        }
      ],
      "stateMutability": "view",
      "type": "function"
    },
    {
      "inputs": [
        {
          "internalType": "uint256",
          "name": "tokenId",
          "type": "uint256"
        },
        {
          "internalType": "string",
          "name": "id",
          "type": "string"
        }
      ],
      "name": "generateTokenURI",
      "outputs": [
        {
          "internalType": "string",
          "name": "",
          "type": "string"
        }
      ],
      "stateMutability": "view",
      "type": "function"
    },
    {
      "inputs": [
        {
          "internalType": "uint256",
          "name": "tokenId",
          "type": "uint256"
        }
      ],
      "name": "getApproved",
      "outputs": [
        {
          "internalType": "address",
          "name": "",
          "type": "address"
        }
      ],
      "stateMutability": "view",
      "type": "function"
    },
    {
      "inputs": [],
      "name": "getUserNFTs",
      "outputs": [
        {
          "internalType": "uint256[]",
          "name": "",
          "type": "uint256[]"
        }
      ],
      "stateMutability": "view",
      "type": "function"
    },
    {
      "inputs": [
        {
          "internalType": "uint256",
          "name": "",
          "type": "uint256"
        }
      ],
      "name": "inTransit",
      "outputs": [
        {
          "internalType": "bool",
          "name": "",
          "type": "bool"
        }
      ],
      "stateMutability": "view",
      "type": "function"
    },
    {
      "inputs": [
        {
          "internalType": "address",
          "name": "owner",
          "type": "address"
        },
        {
          "internalType": "address",
          "name": "operator",
          "type": "address"
        }
      ],
      "name": "isApprovedForAll",
      "outputs": [
        {
          "internalType": "bool",
          "name": "",
          "type": "bool"
        }
      ],
      "stateMutability": "view",
      "type": "function"
    },
    {
      "inputs": [
        {
          "internalType": "uint256",
          "name": "boardWidth",
          "type": "uint256"
        },
        {
          "internalType": "uint256",
          "name": "boardHeight",
          "type": "uint256"
        },
        {
          "internalType": "uint256[]",
          "name": "tokenIds",
          "type": "uint256[]"
        }
      ],
      "name": "makeArt",
      "outputs": [],
      "stateMutability": "nonpayable",
      "type": "function"
    },
    {
      "inputs": [],
      "name": "name",
      "outputs": [
        {
          "internalType": "string",
          "name": "",
          "type": "string"
        }
      ],
      "stateMutability": "view",
      "type": "function"
    },
    {
      "inputs": [
        {
          "internalType": "uint256",
          "name": "tokenId",
          "type": "uint256"
        }
      ],
      "name": "ownerOf",
      "outputs": [
        {
          "internalType": "address",
          "name": "",
          "type": "address"
        }
      ],
      "stateMutability": "view",
      "type": "function"
    },
    {
      "inputs": [
        {
          "internalType": "address",
          "name": "from",
          "type": "address"
        },
        {
          "internalType": "address",
          "name": "to",
          "type": "address"
        },
        {
          "internalType": "uint256",
          "name": "tokenId",
          "type": "uint256"
        }
      ],
      "name": "safeTransferFrom",
      "outputs": [],
      "stateMutability": "nonpayable",
      "type": "function"
    },
    {
      "inputs": [
        {
          "internalType": "address",
          "name": "from",
          "type": "address"
        },
        {
          "internalType": "address",
          "name": "to",
          "type": "address"
        },
        {
          "internalType": "uint256",
          "name": "tokenId",
          "type": "uint256"
        },
        {
          "internalType": "bytes",
          "name": "_data",
          "type": "bytes"
        }
      ],
      "name": "safeTransferFrom",
      "outputs": [],
      "stateMutability": "nonpayable",
      "type": "function"
    },
    {
      "inputs": [
        {
          "internalType": "address",
          "name": "operator",
          "type": "address"
        },
        {
          "internalType": "bool",
          "name": "approved",
          "type": "bool"
        }
      ],
      "name": "setApprovalForAll",
      "outputs": [],
      "stateMutability": "nonpayable",
      "type": "function"
    },
    {
      "inputs": [
        {
          "internalType": "bytes4",
          "name": "interfaceId",
          "type": "bytes4"
        }
      ],
      "name": "supportsInterface",
      "outputs": [
        {
          "internalType": "bool",
          "name": "",
          "type": "bool"
        }
      ],
      "stateMutability": "view",
      "type": "function"
    },
    {
      "inputs": [],
      "name": "svg",
      "outputs": [
        {
          "internalType": "contract ISVG",
          "name": "",
          "type": "address"
        }
      ],
      "stateMutability": "view",
      "type": "function"
    },
    {
      "inputs": [],
      "name": "symbol",
      "outputs": [
        {
          "internalType": "string",
          "name": "",
          "type": "string"
        }
      ],
      "stateMutability": "view",
      "type": "function"
    },
    {
      "inputs": [
        {
          "internalType": "uint256",
          "name": "index",
          "type": "uint256"
        }
      ],
      "name": "tokenByIndex",
      "outputs": [
        {
          "internalType": "uint256",
          "name": "",
          "type": "uint256"
        }
      ],
      "stateMutability": "view",
      "type": "function"
    },
    {
      "inputs": [
        {
          "internalType": "address",
          "name": "owner",
          "type": "address"
        },
        {
          "internalType": "uint256",
          "name": "index",
          "type": "uint256"
        }
      ],
      "name": "tokenOfOwnerByIndex",
      "outputs": [
        {
          "internalType": "uint256",
          "name": "",
          "type": "uint256"
        }
      ],
      "stateMutability": "view",
      "type": "function"
    },
    {
      "inputs": [
        {
          "internalType": "uint256",
          "name": "tokenId",
          "type": "uint256"
        }
      ],
      "name": "tokenURI",
      "outputs": [
        {
          "internalType": "string",
          "name": "",
          "type": "string"
        }
      ],
      "stateMutability": "view",
      "type": "function"
    },
    {
      "inputs": [],
      "name": "totalSupply",
      "outputs": [
        {
          "internalType": "uint256",
          "name": "",
          "type": "uint256"
        }
      ],
      "stateMutability": "view",
      "type": "function"
    },
    {
      "inputs": [
        {
          "internalType": "address",
          "name": "from",
          "type": "address"
        },
        {
          "internalType": "address",
          "name": "to",
          "type": "address"
        },
        {
          "internalType": "uint256",
          "name": "tokenId",
          "type": "uint256"
        }
      ],
      "name": "transferFrom",
      "outputs": [],
      "stateMutability": "nonpayable",
      "type": "function"
    }
  ],
  "bytecode": "0x60806040523480156200001157600080fd5b5060405162005fc038038062005fc08339810160408190526200003491620001b4565b6040805180820182526012815271466c697070616e646f20556e69766572736560701b6020808301918252835180850190945260048452630464c49560e41b9084015281519192916200008a91600091620000f1565b508051620000a0906001906020840190620000f1565b5050600f80546001600160a01b03199081163317909155600b80546001600160a01b03968716908316179055600c80549486169482169490941790935550600d80549190931691161790556200023a565b828054620000ff90620001fd565b90600052602060002090601f0160209004810192826200012357600085556200016e565b82601f106200013e57805160ff19168380011785556200016e565b828001600101855582156200016e579182015b828111156200016e57825182559160200191906001019062000151565b506200017c92915062000180565b5090565b5b808211156200017c576000815560010162000181565b80516001600160a01b0381168114620001af57600080fd5b919050565b600080600060608486031215620001c9578283fd5b620001d48462000197565b9250620001e46020850162000197565b9150620001f46040850162000197565b90509250925092565b600181811c908216806200021257607f821691505b602082108114156200023457634e487b7160e01b600052602260045260246000fd5b50919050565b615d76806200024a6000396000f3fe608060405234801561001057600080fd5b506004361061017a5760003560e01c80636d20931a116100d45780636d20931a146102dc57806370a08231146102ff57806395d89b4114610312578063a22cb4651461031a578063a2a94fe71461032d578063a3bab28614610340578063b2eb872c14610353578063b88d4fde14610366578063bd85f55f14610379578063c87b56dd1461038c578063cb5e19781461039f578063cde4efa9146103b2578063e817b439146103c5578063e985e9c5146103d8578063fdc5ab8e146103eb57600080fd5b806301ffc9a71461017f5780630500bc41146101a757806306fdde03146101bc578063081812fc146101d1578063095ea7b3146101fc57806309b089fe1461020f57806318160ddd1461022257806323b872dd146102345780632f745c5914610247578063310c1f611461025a57806342842e0e1461026d57806343a2d4b0146102805780634f6ccce7146102a35780636352211e146102b6578063642cb825146102c9575b600080fd5b61019261018d36600461479a565b610400565b60405190151581526020015b60405180910390f35b6101ba6101b5366004614915565b610411565b005b6101c46108e9565b60405161019e9190615881565b6101e46101df366004614a54565b61097b565b6040516001600160a01b03909116815260200161019e565b6101ba61020a366004614723565b610a03565b6101ba61021d366004614876565b610b14565b6009545b60405190815260200161019e565b6101ba61024236600461463a565b611804565b610226610255366004614723565b611835565b6101c4610268366004614a6c565b6118cb565b6101ba61027b36600461463a565b6119c2565b61019261028e366004614a54565b60116020526000908152604090205460ff1681565b6102266102b1366004614a54565b6119dd565b6101e46102c4366004614a54565b611a7e565b6101c46102d7366004614abe565b611af5565b6102ef6102ea3660046147d2565b611f1b565b60405161019e9493929190615894565b61022661030d3660046145ee565b6120f7565b6101c461217e565b6101ba6103283660046146ed565b61218d565b6101ba61033b366004614b02565b61219c565b6101ba61034e3660046147d2565b61270a565b6101ba6103613660046147d2565b612a30565b6101ba610374366004614675565b612ed5565b600b546101e4906001600160a01b031681565b6101c461039a366004614a54565b612f0d565b600d546101e4906001600160a01b031681565b600c546101e4906001600160a01b031681565b6101926103d336600461474c565b612f18565b6101926103e6366004614608565b612f7c565b6103f3612faa565b60405161019e919061581e565b600061040b82613066565b92915050565b61041a8161308b565b61045f5760405162461bcd60e51b8152602060048201526011602482015270496e76616c69642067616d65207479706560781b60448201526064015b60405180910390fd5b610468826131f2565b6104a95760405162461bcd60e51b8152602060048201526012602482015271125b9d985b1a590819d85b59481b195d995b60721b6044820152606401610456565b336010846040516104ba919061539c565b908152602001604051809103902060040160006101000a8154816001600160a01b0302191690836001600160a01b0316021790555082601084604051610500919061539c565b90815260200160405180910390206005019080519060200190610524929190614389565b50816001600160401b0381111561054b57634e487b7160e01b600052604160045260246000fd5b604051908082528060200260200182016040528015610574578160200160208202803683370190505b50601084604051610585919061539c565b908152602001604051809103902060000190805190602001906105a992919061440d565b50816001600160401b038111156105d057634e487b7160e01b600052604160045260246000fd5b6040519080825280602002602001820160405280156105f9578160200160208202803683370190505b5060108460405161060a919061539c565b9081526020016040518091039020600101908051906020019061062e92919061440d565b5061063882613210565b601084604051610648919061539c565b9081526020016040518091039020600201908051906020019061066c929190614389565b508060108460405161067e919061539c565b908152602001604051809103902060030190805190602001906106a2929190614389565b5060408051808201909152600a8152691cdc5d585c9951dc9a5960b21b6020918201528151908201207fc3ddc1f4f3920201d34a3f107fe291f8abe441589f07c3f734acaaaf64d57c2e1415610741576107076010610702600485615bb7565b613331565b601084604051610717919061539c565b9081526020016040518091039020600601908051906020019061073b9291906144ae565b50610887565b6040805180820190915260048152636469636560e01b6020918201528151908201207f01f9ca87172ecd8343d776bdd6024a4028f5596c76320882abd93e3bd1c724eb141561079a576107076006610702600485615bb7565b604080518082019091526009815268686578616772616d7360b81b6020918201528151908201207f1ab43e081de59dbb11ddd139375d1386f983b7c753667dd103c496cf3ba13241148061083357506040805180820190915260098152681cdc1bdb9cdbdc995960ba1b6020918201528151908201207fdbd46d7dad44ed00275a5702bce33a878a0245e574e0745556c911b86e8bfc3d145b156108475761070760046107028185615bb7565b60405162461bcd60e51b8152602060048201526015602482015274556e737570706f727465642067616d65207479706560581b6044820152606401610456565b336001600160a01b03167f19bf20acb39695a511e15960f093faf157e1c0a74ffdd283d4750e7a7b44c6ac846010866040516108c3919061539c565b9081526040519081900360200181206108dc92916158e7565b60405180910390a2505050565b6060600080546108f890615c2d565b80601f016020809104026020016040519081016040528092919081815260200182805461092490615c2d565b80156109715780601f1061094657610100808354040283529160200191610971565b820191906000526020600020905b81548152906001019060200180831161095457829003601f168201915b5050505050905090565b60006109868261349d565b6109e75760405162461bcd60e51b815260206004820152602c60248201527f4552433732313a20617070726f76656420717565727920666f72206e6f6e657860448201526b34b9ba32b73a103a37b5b2b760a11b6064820152608401610456565b506000908152600460205260409020546001600160a01b031690565b6000610a0e82611a7e565b9050806001600160a01b0316836001600160a01b03161415610a7c5760405162461bcd60e51b815260206004820152602160248201527f4552433732313a20617070726f76616c20746f2063757272656e74206f776e656044820152603960f91b6064820152608401610456565b336001600160a01b0382161480610a985750610a988133612f7c565b610b055760405162461bcd60e51b815260206004820152603860248201527f4552433732313a20617070726f76652063616c6c6572206973206e6f74206f776044820152771b995c881b9bdc88185c1c1c9bdd995908199bdc88185b1b60421b6064820152608401610456565b610b0f83836134ba565b505050565b60006001600160a01b0316601083604051610b2f919061539c565b908152604051908190036020019020600401546001600160a01b03161415610b8f5760405162461bcd60e51b815260206004820152601360248201527211d85b5948191bd95cc81b9bdd08195e1a5cdd606a1b6044820152606401610456565b601082604051610b9f919061539c565b90815260405190819003602001902054815163ffffffff1610610bd45760405162461bcd60e51b815260040161045690615980565b601082604051610be4919061539c565b90815260405160209181900382019020549082015163ffffffff1610610c1c5760405162461bcd60e51b815260040161045690615980565b6000806004601085604051610c31919061539c565b90815260405190819003602001902054610c4b9190615bb7565b604080514260208201526001600160601b03193360601b16918101919091526054016040516020818303038152906040528051906020012060001c610c909190615c83565b610c9b906001615b9f565b91506004601085604051610caf919061539c565b90815260405190819003602001902054610cc99190615bb7565b610cd542610428615b9f565b4333604051602001610d0793929190928352602083019190915260601b6001600160601b031916604082015260540190565b6040516020818303038152906040528051906020012060001c610d2a9190615c83565b610d35906001615b9f565b9050601084604051610d47919061539c565b908152604051908190036020019020836000602002015163ffffffff1681548110610d8257634e487b7160e01b600052603260045260246000fd5b60009182526020918290209181049091015460ff601f9092166101000a900416610e7257601084604051610db6919061539c565b908152604051908190036020019020600601610dd3600184615bea565b81548110610df157634e487b7160e01b600052603260045260246000fd5b9060005260206000200154601085604051610e0c919061539c565b908152604051908190036020019020846000602002015163ffffffff1681548110610e4757634e487b7160e01b600052603260045260246000fd5b90600052602060002090602091828204019190066101000a81548160ff021916908360ff1602179055505b601084604051610e82919061539c565b908152604051908190036020019020836001602002015163ffffffff1681548110610ebd57634e487b7160e01b600052603260045260246000fd5b60009182526020918290209181049091015460ff601f9092166101000a900416610fad57601084604051610ef1919061539c565b908152604051908190036020019020600601610f0e600183615bea565b81548110610f2c57634e487b7160e01b600052603260045260246000fd5b9060005260206000200154601085604051610f47919061539c565b908152604051908190036020019020846001602002015163ffffffff1681548110610f8257634e487b7160e01b600052603260045260246000fd5b90600052602060002090602091828204019190066101000a81548160ff021916908360ff1602179055505b601084604051610fbd919061539c565b908152604051908190036020019020836001602002015163ffffffff1681548110610ff857634e487b7160e01b600052603260045260246000fd5b90600052602060002090602091828204019190069054906101000a900460ff1660ff1660108560405161102b919061539c565b908152604051908190036020019020846000602002015163ffffffff168154811061106657634e487b7160e01b600052603260045260246000fd5b60009182526020918290209181049091015460ff601f9092166101000a90041614156112705760108460405161109c919061539c565b908152604051908190036020019020836000602002015163ffffffff16815481106110d757634e487b7160e01b600052603260045260246000fd5b90600052602060002090602091828204019190069054906101000a900460ff16601085604051611107919061539c565b908152604051908190036020019020600101846000602002015163ffffffff168154811061114557634e487b7160e01b600052603260045260246000fd5b90600052602060002090602091828204019190066101000a81548160ff021916908360ff16021790555060108460405161117f919061539c565b908152604051908190036020019020836001602002015163ffffffff16815481106111ba57634e487b7160e01b600052603260045260246000fd5b90600052602060002090602091828204019190069054906101000a900460ff166010856040516111ea919061539c565b90815260200160405180910390206001018460016002811061121c57634e487b7160e01b600052603260045260246000fd5b602002015163ffffffff168154811061124557634e487b7160e01b600052603260045260246000fd5b90600052602060002090602091828204019190066101000a81548160ff021916908360ff1602179055505b600061129a601086604051611285919061539c565b90815260405190819003602001902054613528565b90506000805b6010876040516112b0919061539c565b9081526040519081900360200190205481101561134b576010876040516112d7919061539c565b9081526020016040518091039020600101818154811061130757634e487b7160e01b600052603260045260246000fd5b60009182526020918290209181049091015460ff601f9092166101000a90041661133957611336826001615b9f565b91505b8061134381615c68565b9150506112a0565b5081811161168957601086604051611363919061539c565b908152604051908190036020019020856001602002015163ffffffff168154811061139e57634e487b7160e01b600052603260045260246000fd5b90600052602060002090602091828204019190069054906101000a900460ff1660ff166010876040516113d1919061539c565b908152604051908190036020019020866000602002015163ffffffff168154811061140c57634e487b7160e01b600052603260045260246000fd5b60009182526020918290209181049091015460ff601f9092166101000a9004161461168957601086604051611441919061539c565b908152604051908190036020019020856001602002015163ffffffff168154811061147c57634e487b7160e01b600052603260045260246000fd5b90600052602060002090602091828204019190069054906101000a900460ff166010876040516114ac919061539c565b908152604051908190036020019020866000602002015163ffffffff16815481106114e757634e487b7160e01b600052603260045260246000fd5b90600052602060002090602091828204019190066101000a81548160ff021916908360ff160217905550601086604051611521919061539c565b908152604051908190036020019020856000602002015163ffffffff168154811061155c57634e487b7160e01b600052603260045260246000fd5b90600052602060002090602091828204019190069054906101000a900460ff1660108760405161158c919061539c565b9081526020016040518091039020600101866001600281106115be57634e487b7160e01b600052603260045260246000fd5b602002015163ffffffff16815481106115e757634e487b7160e01b600052603260045260246000fd5b90600052602060002090602091828204019190066101000a81548160ff021916908360ff1602179055601087604051611620919061539c565b908152604051908190036020019020600101866000602002015163ffffffff168154811061165e57634e487b7160e01b600052603260045260246000fd5b90600052602060002090602091828204019190066101000a81548160ff021916908360ff1602179055505b85604051611697919061539c565b60405180910390207f6577aff1d72bca1d385ac76148865f215947d38ef437ea0deeb5496ce36aa20d6010886040516116d0919061539c565b9081526040519081900360200181206116ea918990615a57565b60405180910390a2506000805b601087604051611707919061539c565b908152604051908190036020019020548110156117a25760108760405161172e919061539c565b9081526020016040518091039020600101818154811061175e57634e487b7160e01b600052603260045260246000fd5b60009182526020918290209181049091015460ff601f9092166101000a9004166117905761178d826001615b9f565b91505b8061179a81615c68565b9150506116f7565b50806117fc577f7043358b708d80879132e3a6c6cdac917ba587145eef870c20bc31ba92dbcfd7866010886040516117da919061539c565b9081526040519081900360200181206117f392916158e7565b60405180910390a15b505050505050565b61180e338261357f565b61182a5760405162461bcd60e51b8152600401610456906159d7565b610b0f838383613648565b6000611840836120f7565b82106118a25760405162461bcd60e51b815260206004820152602b60248201527f455243373231456e756d657261626c653a206f776e657220696e646578206f7560448201526a74206f6620626f756e647360a81b6064820152608401610456565b506001600160a01b03919091166000908152600760209081526040808320938352929052205490565b600b5460405163e248d45760e01b8152606091631dcd6500916000916001600160a01b03169063e248d4579084906119099089908990600401615831565b60006040518083038187803b15801561192157600080fd5b5086fa158015611935573d6000803e3d6000fd5b50505050506040513d6000823e601f3d908101601f1916820160405261195e9190810190614804565b9050600061199461196e88613210565b836040516020016119809291906155ed565b6040516020818303038152906040526137ef565b9050806040516020016119a79190615766565b60405160208183030381529060405293505050509392505050565b610b0f83838360405180602001604052806000815250612ed5565b60006119e860095490565b8210611a4b5760405162461bcd60e51b815260206004820152602c60248201527f455243373231456e756d657261626c653a20676c6f62616c20696e646578206f60448201526b7574206f6620626f756e647360a01b6064820152608401610456565b60098281548110611a6c57634e487b7160e01b600052603260045260246000fd5b90600052602060002001549050919050565b6000818152600260205260408120546001600160a01b03168061040b5760405162461bcd60e51b815260206004820152602960248201527f4552433732313a206f776e657220717565727920666f72206e6f6e657869737460448201526832b73a103a37b5b2b760b91b6064820152608401610456565b60606000601083604051611b09919061539c565b90815260408051918290036020908101832080546101009281028501830190935260e0840183815290928492849190840182828015611b8557602002820191906000526020600020906000905b825461010083900a900460ff16815260206001928301818104948501949093039092029101808411611b565790505b5050505050815260200160018201805480602002602001604051908101604052809291908181526020018280548015611bfb57602002820191906000526020600020906000905b825461010083900a900460ff16815260206001928301818104948501949093039092029101808411611bcc5790505b50505050508152602001600282018054611c1490615c2d565b80601f0160208091040260200160405190810160405280929190818152602001828054611c4090615c2d565b8015611c8d5780601f10611c6257610100808354040283529160200191611c8d565b820191906000526020600020905b815481529060010190602001808311611c7057829003601f168201915b50505050508152602001600382018054611ca690615c2d565b80601f0160208091040260200160405190810160405280929190818152602001828054611cd290615c2d565b8015611d1f5780601f10611cf457610100808354040283529160200191611d1f565b820191906000526020600020905b815481529060010190602001808311611d0257829003601f168201915b505050918352505060048201546001600160a01b03166020820152600582018054604090920191611d4f90615c2d565b80601f0160208091040260200160405190810160405280929190818152602001828054611d7b90615c2d565b8015611dc85780601f10611d9d57610100808354040283529160200191611dc8565b820191906000526020600020905b815481529060010190602001808311611dab57829003601f168201915b5050505050815260200160068201805480602002602001604051908101604052809291908181526020018280548015611e2057602002820191906000526020600020905b815481526020019060010190808311611e0c575b505050919092525050600b546020830151606084015160405163e248d45760e01b81529495506000946001600160a01b03909316935063e248d45792611e6a929190600401615831565b60006040518083038186803b158015611e8257600080fd5b505afa158015611e96573d6000803e3d6000fd5b505050506040513d6000823e601f3d908101601f19168201604052611ebe9190810190614804565b90506000611eee611ece87613210565b868560600151866040015186604051602001611980959493929190615456565b905080604051602001611f019190615766565b604051602081830303815290604052935050505092915050565b80516020818301810180516010825292820191909301209152600281018054611f4390615c2d565b80601f0160208091040260200160405190810160405280929190818152602001828054611f6f90615c2d565b8015611fbc5780601f10611f9157610100808354040283529160200191611fbc565b820191906000526020600020905b815481529060010190602001808311611f9f57829003601f168201915b505050505090806003018054611fd190615c2d565b80601f0160208091040260200160405190810160405280929190818152602001828054611ffd90615c2d565b801561204a5780601f1061201f5761010080835404028352916020019161204a565b820191906000526020600020905b81548152906001019060200180831161202d57829003601f168201915b505050600484015460058501805494956001600160a01b0390921694919350915061207490615c2d565b80601f01602080910402602001604051908101604052809291908181526020018280546120a090615c2d565b80156120ed5780601f106120c2576101008083540402835291602001916120ed565b820191906000526020600020905b8154815290600101906020018083116120d057829003601f168201915b5050505050905084565b60006001600160a01b0382166121625760405162461bcd60e51b815260206004820152602a60248201527f4552433732313a2062616c616e636520717565727920666f7220746865207a65604482015269726f206164647265737360b01b6064820152608401610456565b506001600160a01b031660009081526003602052604090205490565b6060600180546108f890615c2d565b612198338383613964565b5050565b6121a68284615bcb565b81511461220a5760405162461bcd60e51b815260206004820152602c60248201527f4e756d626572206f6620746f6b656e496473206d757374206d6174636820746860448201526b6520626f6172642073697a6560a01b6064820152608401610456565b60005b81518110156125ca57600061224883838151811061223b57634e487b7160e01b600052603260045260246000fd5b6020026020010151611a7e565b90506001600160a01b03811633141561229d5760405162461bcd60e51b815260206004820152601760248201527643616e27742075736520796f7572206f776e204e46547360481b6044820152606401610456565b600d546122b49082906001600160a01b0316612f7c565b6122fe5760405162461bcd60e51b815260206004820152601b60248201527a139195081a5cc81b9bdd08185c1c1c9bdd995908199bdc88185b1b602a1b6044820152606401610456565b600d5483516001600160a01b039091169063d53140029085908590811061233557634e487b7160e01b600052603260045260246000fd5b60200260200101516040518263ffffffff1660e01b815260040161235b91815260200190565b602060405180830381600087803b15801561237557600080fd5b505af1158015612389573d6000803e3d6000fd5b505050506040513d601f19601f820116820180604052508101906123ad919061477e565b156123fa5760405162461bcd60e51b815260206004820152601e60248201527f4e46542069732070617274206f6620616e6f7468657220617274776f726b00006044820152606401610456565b6011600084848151811061241e57634e487b7160e01b600052603260045260246000fd5b60209081029190910181015182528101919091526040016000205460ff161561247d5760405162461bcd60e51b8152602060048201526011602482015270139195081a5cc81a5b881d1c985b9cda5d607a1b6044820152606401610456565b600c5483516001600160a01b039091169063dc5fb0009083908690869081106124b657634e487b7160e01b600052603260045260246000fd5b60200260200101516040518363ffffffff1660e01b81526004016124ef9291906001600160a01b03929092168252602082015260400190565b600060405180830381600087803b15801561250957600080fd5b505af115801561251d573d6000803e3d6000fd5b50505050612563813385858151811061254657634e487b7160e01b600052603260045260246000fd5b602002602001015160405180602001604052806000815250613a2f565b60016011600085858151811061258957634e487b7160e01b600052603260045260246000fd5b6020026020010151815260200190815260200160002060006101000a81548160ff0219169083151502179055505080806125c290615c68565b91505061220d565b50600d54604051634af701a360e01b81526000916001600160a01b031690634af701a390612602908790879087903390600401615aa3565b600060405180830381600087803b15801561261c57600080fd5b505af1158015612630573d6000803e3d6000fd5b505050506040513d6000823e601f3d908101601f19168201604052612658919081019061497e565b90507f77bb4d6591ce4b7f7b8977b562edb2b31b6d8cafa7b067f0ef9517fd48013df7816040516126899190615a28565b60405180910390a160005b8251811015612703576000601160008584815181106126c357634e487b7160e01b600052603260045260246000fd5b6020026020010151815260200190815260200160002060006101000a81548160ff02191690831515021790555080806126fb90615c68565b915050612694565b5050505050565b336001600160a01b0316601082604051612724919061539c565b908152604051908190036020019020600401546001600160a01b03161461279f5760405162461bcd60e51b815260206004820152602960248201527f4f6e6c79207468652067616d65277320706c617965722063616e20637265617460448201526819481d1a194813919560ba1b6064820152608401610456565b61282f6010826040516127b2919061539c565b908152604080519182900360209081018320600101805480830285018301909352828452919083018282801561282557602002820191906000526020600020906000905b825461010083900a900460ff168152602060019283018181049485019490930390920291018084116127f65790505b5050505050612f18565b1561287c5760405162461bcd60e51b815260206004820152601f60248201527f596f752063616e2774206d696e7420616e20756e736f6c7665642067616d65006044820152606401610456565b61288a600e80546001019055565b6000612895600e5490565b90506128a13382613a62565b60006128ad8284611af5565b90506128b98282613a7c565b600d546128d0906001600160a01b0316600161218d565b60006040516020016128e1906157ab565b60405160208183030381529060405280519060200120601085604051612907919061539c565b908152602001604051809103902060030160405160200161292891906153e7565b60405160208183030381529060405280519060200120141561294c57506004612950565b5060015b600c546040516001600160a01b0390911690638778f5909060109061297690889061539c565b9081526040519081900360200181206004908101546001600160e01b031960e085901b1683526129b6926001600160a01b039091169188918791016157fd565b600060405180830381600087803b1580156129d057600080fd5b505af11580156129e4573d6000803e3d6000fd5b505050506129f184613b07565b7f3f1a9864b5687304a31c9a81973dcaab589c026ee94a9f585cbe48323b7732988484604051612a2292919061590c565b60405180910390a150505050565b60408051601080825261022082019092526000916020820161020080368337019050509050600181600081518110612a7857634e487b7160e01b600052603260045260246000fd5b602002602001019060ff16908160ff1681525050600281600181518110612aaf57634e487b7160e01b600052603260045260246000fd5b602002602001019060ff16908160ff1681525050600481600281518110612ae657634e487b7160e01b600052603260045260246000fd5b602002602001019060ff16908160ff1681525050600181600381518110612b1d57634e487b7160e01b600052603260045260246000fd5b602002602001019060ff16908160ff1681525050600281600481518110612b5457634e487b7160e01b600052603260045260246000fd5b602002602001019060ff16908160ff1681525050600481600581518110612b8b57634e487b7160e01b600052603260045260246000fd5b602002602001019060ff16908160ff1681525050600381600681518110612bc257634e487b7160e01b600052603260045260246000fd5b602002602001019060ff16908160ff1681525050600381600781518110612bf957634e487b7160e01b600052603260045260246000fd5b602002602001019060ff16908160ff1681525050600481600881518110612c3057634e487b7160e01b600052603260045260246000fd5b602002602001019060ff16908160ff1681525050600181600981518110612c6757634e487b7160e01b600052603260045260246000fd5b602002602001019060ff16908160ff1681525050600281600a81518110612c9e57634e487b7160e01b600052603260045260246000fd5b602002602001019060ff16908160ff1681525050600481600b81518110612cd557634e487b7160e01b600052603260045260246000fd5b602002602001019060ff16908160ff1681525050600381600c81518110612d0c57634e487b7160e01b600052603260045260246000fd5b602002602001019060ff16908160ff1681525050600181600d81518110612d4357634e487b7160e01b600052603260045260246000fd5b602002602001019060ff16908160ff1681525050600281600e81518110612d7a57634e487b7160e01b600052603260045260246000fd5b602002602001019060ff16908160ff1681525050600381600f81518110612db157634e487b7160e01b600052603260045260246000fd5b602002602001019060ff16908160ff1681525050612dd3600e80546001019055565b6000612dde600e5490565b9050612dea3382613a62565b6000612df78284866118cb565b9050612e038282613a7c565b600d54612e1a906001600160a01b0316600161218d565b600c546040516308778f5960e41b81526001600160a01b0390911690638778f59090612e4f90339086906001906004016157fd565b600060405180830381600087803b158015612e6957600080fd5b505af1158015612e7d573d6000803e3d6000fd5b505050507f3f1a9864b5687304a31c9a81973dcaab589c026ee94a9f585cbe48323b77329882604051612a2291906040808252600890820152677465737447616d6560c01b6060820152602081019190915260800190565b612edf338361357f565b612efb5760405162461bcd60e51b8152600401610456906159d7565b612f0784848484613a2f565b50505050565b606061040b82613bf7565b6000805b8251811015612f7357828181518110612f4557634e487b7160e01b600052603260045260246000fd5b602002602001015160ff1660001415612f615750600192915050565b80612f6b81615c68565b915050612f1c565b50600092915050565b6001600160a01b03918216600090815260056020908152604080832093909416825291909152205460ff1690565b60606000612fb7336120f7565b90506000816001600160401b03811115612fe157634e487b7160e01b600052604160045260246000fd5b60405190808252806020026020018201604052801561300a578160200160208202803683370190505b50905060005b8281101561305f576130223382611835565b82828151811061304257634e487b7160e01b600052603260045260246000fd5b60209081029190910101528061305781615c68565b915050613010565b5092915050565b60006001600160e01b0319821663780e9d6360e01b148061040b575061040b82613d66565b600060405160200161309c906157ab565b60405160208183030381529060405280519060200120826040516020016130c3919061539c565b6040516020818303038152906040528051906020012014806131385750604051691cdc5d585c9951dc9a5960b21b6020820152602a016040516020818303038152906040528051906020012082604051602001613120919061539c565b60405160208183030381529060405280519060200120145b806131905750604051636469636560e01b60208201526024016040516020818303038152906040528051906020012082604051602001613178919061539c565b60405160208183030381529060405280519060200120145b8061040b575060405168686578616772616d7360b81b602082015260290160405160208183030381529060405280519060200120826040516020016131d5919061539c565b604051602081830303815290604052805190602001201492915050565b600081601014806132035750816040145b8061040b57505060801490565b6060816132345750506040805180820190915260018152600360fc1b602082015290565b8160005b811561325e578061324881615c68565b91506132579050600a83615bb7565b9150613238565b6000816001600160401b0381111561328657634e487b7160e01b600052604160045260246000fd5b6040519080825280601f01601f1916602001820160405280156132b0576020820181803683370190505b5090505b8415613329576132c5600183615bea565b91506132d2600a86615c83565b6132dd906030615b9f565b60f81b81838151811061330057634e487b7160e01b600052603260045260246000fd5b60200101906001600160f81b031916908160001a905350613322600a86615bb7565b94506132b4565b949350505050565b60606000826001600160401b0381111561335b57634e487b7160e01b600052604160045260246000fd5b604051908082528060200260200182016040528015613384578160200160208202803683370190505b50905060005b83811015613495576040516001600160601b03193360601b1660208201524360348201526054810182905260009086906074016040516020818303038152906040528051906020012060001c6133e09190615c83565b905060005b8281101561344b578184828151811061340e57634e487b7160e01b600052603260045260246000fd5b602002602001015114156134395786613428836001615b9f565b6134329190615c83565b9150600090505b8061344381615c68565b9150506133e5565b50613457816001615b9f565b83838151811061347757634e487b7160e01b600052603260045260246000fd5b6020908102919091010152508061348d81615c68565b91505061338a565b509392505050565b6000908152600260205260409020546001600160a01b0316151590565b600081815260046020526040902080546001600160a01b0319166001600160a01b03841690811790915581906134ef82611a7e565b6001600160a01b03167f8c5be1e5ebec7d5bd14f71427d1e84f3dd0314c0f7b2291e5b200ac8c7c3b92560405160405180910390a45050565b6000806002613538846001615b9f565b6135429190615bb7565b9050825b8082101561357857508060028161355d8187615bb7565b6135679190615b9f565b6135719190615bb7565b9150613546565b9392505050565b600061358a8261349d565b6135eb5760405162461bcd60e51b815260206004820152602c60248201527f4552433732313a206f70657261746f7220717565727920666f72206e6f6e657860448201526b34b9ba32b73a103a37b5b2b760a11b6064820152608401610456565b60006135f683611a7e565b9050806001600160a01b0316846001600160a01b0316148061361d575061361d8185612f7c565b806133295750836001600160a01b03166136368461097b565b6001600160a01b031614949350505050565b826001600160a01b031661365b82611a7e565b6001600160a01b0316146136bf5760405162461bcd60e51b815260206004820152602560248201527f4552433732313a207472616e736665722066726f6d20696e636f72726563742060448201526437bbb732b960d91b6064820152608401610456565b6001600160a01b0382166137215760405162461bcd60e51b8152602060048201526024808201527f4552433732313a207472616e7366657220746f20746865207a65726f206164646044820152637265737360e01b6064820152608401610456565b61372c838383613db6565b6137376000826134ba565b6001600160a01b0383166000908152600360205260408120805460019290613760908490615bea565b90915550506001600160a01b038216600090815260036020526040812080546001929061378e908490615b9f565b909155505060008181526002602052604080822080546001600160a01b0319166001600160a01b0386811691821790925591518493918716917fddf252ad1be2c89b69c2b068fc378daa952ba7f163c4a11628f55a4df523b3ef91a4505050565b606081516000141561380f57505060408051602081019091526000815290565b6000604051806060016040528060408152602001615d01604091399050600060038451600261383e9190615b9f565b6138489190615bb7565b613853906004615bcb565b90506000613862826020615b9f565b6001600160401b0381111561388757634e487b7160e01b600052604160045260246000fd5b6040519080825280601f01601f1916602001820160405280156138b1576020820181803683370190505b509050818152600183018586518101602084015b8183101561391f5760039283018051603f601282901c811687015160f890811b8552600c83901c8216880151811b6001860152600683901c8216880151811b60028601529116860151901b938201939093526004016138c5565b600389510660018114613939576002811461394a57613956565b613d3d60f01b600119830152613956565b603d60f81b6000198301525b509398975050505050505050565b816001600160a01b0316836001600160a01b031614156139c25760405162461bcd60e51b815260206004820152601960248201527822a9219b99189d1030b8383937bb32903a379031b0b63632b960391b6044820152606401610456565b6001600160a01b03838116600081815260056020908152604080832094871680845294825291829020805460ff191686151590811790915591519182527f17307eab39ab6107e8899845ad3d59bd9653f200f220920489ca2b5937696c31910160405180910390a3505050565b613a3a848484613648565b613a4684848484613dc1565b612f075760405162461bcd60e51b81526004016104569061592e565b612198828260405180602001604052806000815250613ece565b613a858261349d565b613ae85760405162461bcd60e51b815260206004820152602e60248201527f45524337323155524953746f726167653a2055524920736574206f66206e6f6e60448201526d32bc34b9ba32b73a103a37b5b2b760911b6064820152608401610456565b60008281526006602090815260409091208251610b0f92840190614389565b6000601082604051613b19919061539c565b90815260405190819003602001902080549091506001600160401b03811115613b5257634e487b7160e01b600052604160045260246000fd5b604051908082528060200260200182016040528015613b7b578160200160208202803683370190505b508051613b8f91839160209091019061440d565b5080546001600160401b03811115613bb757634e487b7160e01b600052604160045260246000fd5b604051908082528060200260200182016040528015613be0578160200160208202803683370190505b508051610b0f91600184019160209091019061440d565b6060613c028261349d565b613c685760405162461bcd60e51b815260206004820152603160248201527f45524337323155524953746f726167653a2055524920717565727920666f72206044820152703737b732bc34b9ba32b73a103a37b5b2b760791b6064820152608401610456565b60008281526006602052604081208054613c8190615c2d565b80601f0160208091040260200160405190810160405280929190818152602001828054613cad90615c2d565b8015613cfa5780601f10613ccf57610100808354040283529160200191613cfa565b820191906000526020600020905b815481529060010190602001808311613cdd57829003601f168201915b505050505090506000613d1860408051602081019091526000815290565b9050805160001415613d2b575092915050565b815115613d5d578082604051602001613d459291906153b8565b60405160208183030381529060405292505050919050565b61332984613f01565b60006001600160e01b031982166380ac58cd60e01b1480613d9757506001600160e01b03198216635b5e139f60e01b145b8061040b57506301ffc9a760e01b6001600160e01b031983161461040b565b610b0f838383613fd8565b60006001600160a01b0384163b15613ec357604051630a85bd0160e11b81526001600160a01b0385169063150b7a0290613e059033908990889088906004016157c0565b602060405180830381600087803b158015613e1f57600080fd5b505af1925050508015613e4f575060408051601f3d908101601f19168201909252613e4c918101906147b6565b60015b613ea9573d808015613e7d576040519150601f19603f3d011682016040523d82523d6000602084013e613e82565b606091505b508051613ea15760405162461bcd60e51b81526004016104569061592e565b805181602001fd5b6001600160e01b031916630a85bd0160e11b149050613329565b506001949350505050565b613ed88383614090565b613ee56000848484613dc1565b610b0f5760405162461bcd60e51b81526004016104569061592e565b6060613f0c8261349d565b613f705760405162461bcd60e51b815260206004820152602f60248201527f4552433732314d657461646174613a2055524920717565727920666f72206e6f60448201526e3732bc34b9ba32b73a103a37b5b2b760891b6064820152608401610456565b6000613f8760408051602081019091526000815290565b90506000815111613fa75760405180602001604052806000815250613578565b80613fb184613210565b604051602001613fc29291906153b8565b6040516020818303038152906040529392505050565b6001600160a01b0383166140335761402e81600980546000838152600a60205260408120829055600182018355919091527f6e1540171b6c0c960b71a7020d9f60077f6af931a8bbf590da0223dacf75c7af0155565b614056565b816001600160a01b0316836001600160a01b0316146140565761405683826141cf565b6001600160a01b03821661406d57610b0f8161426c565b826001600160a01b0316826001600160a01b031614610b0f57610b0f8282614345565b6001600160a01b0382166140e65760405162461bcd60e51b815260206004820181905260248201527f4552433732313a206d696e7420746f20746865207a65726f20616464726573736044820152606401610456565b6140ef8161349d565b1561413c5760405162461bcd60e51b815260206004820152601c60248201527f4552433732313a20746f6b656e20616c7265616479206d696e746564000000006044820152606401610456565b61414860008383613db6565b6001600160a01b0382166000908152600360205260408120805460019290614171908490615b9f565b909155505060008181526002602052604080822080546001600160a01b0319166001600160a01b03861690811790915590518392907fddf252ad1be2c89b69c2b068fc378daa952ba7f163c4a11628f55a4df523b3ef908290a45050565b600060016141dc846120f7565b6141e69190615bea565b600083815260086020526040902054909150808214614239576001600160a01b03841660009081526007602090815260408083208584528252808320548484528184208190558352600890915290208190555b5060009182526008602090815260408084208490556001600160a01b039094168352600781528383209183525290812055565b60095460009061427e90600190615bea565b6000838152600a6020526040812054600980549394509092849081106142b457634e487b7160e01b600052603260045260246000fd5b9060005260206000200154905080600983815481106142e357634e487b7160e01b600052603260045260246000fd5b6000918252602080832090910192909255828152600a9091526040808220849055858252812055600980548061432957634e487b7160e01b600052603160045260246000fd5b6001900381819060005260206000200160009055905550505050565b6000614350836120f7565b6001600160a01b039093166000908152600760209081526040808320868452825280832085905593825260089052919091209190915550565b82805461439590615c2d565b90600052602060002090601f0160209004810192826143b757600085556143fd565b82601f106143d057805160ff19168380011785556143fd565b828001600101855582156143fd579182015b828111156143fd5782518255916020019190600101906143e2565b506144099291506144e8565b5090565b82805482825590600052602060002090601f016020900481019282156143fd5791602002820160005b8382111561447457835183826101000a81548160ff021916908360ff1602179055509260200192600101602081600001049283019260010302614436565b80156144a15782816101000a81549060ff0219169055600101602081600001049283019260010302614474565b50506144099291506144e8565b8280548282559060005260206000209081019282156143fd57916020028201828111156143fd5782518255916020019190600101906143e2565b5b8082111561440957600081556001016144e9565b600061451061450b84615b78565b615b25565b905082815283838301111561452457600080fd5b828260208301376000602084830101529392505050565b80356001600160a01b038116811461455257600080fd5b919050565b600082601f830112614567578081fd5b8135602061457761450b83615b55565b80838252828201915082860187848660051b8901011115614596578586fd5b855b858110156145c257813560ff811681146145b0578788fd5b84529284019290840190600101614598565b5090979650505050505050565b600082601f8301126145df578081fd5b613578838335602085016144fd565b6000602082840312156145ff578081fd5b6135788261453b565b6000806040838503121561461a578081fd5b6146238361453b565b91506146316020840161453b565b90509250929050565b60008060006060848603121561464e578081fd5b6146578461453b565b92506146656020850161453b565b9150604084013590509250925092565b6000806000806080858703121561468a578182fd5b6146938561453b565b93506146a16020860161453b565b92506040850135915060608501356001600160401b038111156146c2578182fd5b8501601f810187136146d2578182fd5b6146e1878235602084016144fd565b91505092959194509250565b600080604083850312156146ff578182fd5b6147088361453b565b9150602083013561471881615cd9565b809150509250929050565b60008060408385031215614735578182fd5b61473e8361453b565b946020939093013593505050565b60006020828403121561475d578081fd5b81356001600160401b03811115614772578182fd5b61332984828501614557565b60006020828403121561478f578081fd5b815161357881615cd9565b6000602082840312156147ab578081fd5b813561357881615cea565b6000602082840312156147c7578081fd5b815161357881615cea565b6000602082840312156147e3578081fd5b81356001600160401b038111156147f8578182fd5b613329848285016145cf565b600060208284031215614815578081fd5b81516001600160401b0381111561482a578182fd5b8201601f8101841361483a578182fd5b805161484861450b82615b78565b81815285602083850101111561485c578384fd5b61486d826020830160208601615c01565b95945050505050565b60008060608385031215614888578182fd5b82356001600160401b0381111561489d578283fd5b6148a9858286016145cf565b925050602084603f8501126148bc578182fd5b6148c4615adb565b80828601876060880111156148d7578485fd5b845b600281101561490757813563ffffffff811681146148f5578687fd5b845292840192908401906001016148d9565b509497909650945050505050565b600080600060608486031215614929578081fd5b83356001600160401b038082111561493f578283fd5b61494b878388016145cf565b9450602086013593506040860135915080821115614967578283fd5b50614974868287016145cf565b9150509250925092565b60006020808385031215614990578182fd5b82516001600160401b03808211156149a6578384fd5b90840190606082870312156149b9578384fd5b6149c1615b03565b8251815283830151848201526040830151828111156149de578586fd5b80840193505086601f8401126149f2578485fd5b82519150614a0261450b83615b55565b80838252858201915085850189878660051b8801011115614a21578788fd5b8795505b84861015614a43578051835260019590950194918601918601614a25565b506040830152509695505050505050565b600060208284031215614a65578081fd5b5035919050565b600080600060608486031215614a80578081fd5b8335925060208401356001600160401b0380821115614a9d578283fd5b614aa987838801614557565b93506040860135915080821115614967578283fd5b60008060408385031215614ad0578182fd5b8235915060208301356001600160401b03811115614aec578182fd5b614af8858286016145cf565b9150509250929050565b600080600060608486031215614b16578081fd5b83359250602080850135925060408501356001600160401b03811115614b3a578283fd5b8501601f81018713614b4a578283fd5b8035614b5861450b82615b55565b8082825284820191508484018a868560051b8701011115614b77578687fd5b8694505b83851015614b99578035835260019490940193918501918501614b7b565b5080955050505050509250925092565b6000815180845260208085019450808401835b83811015614bd857815187529582019590820190600101614bbc565b509495945050505050565b6000815480845260208085019450838352808320835b83811015614bd857815487529582019560019182019101614bf9565b805480835260008281526020808220940193909190825b82601f82011015614eb357815460ff80821688526020614c55818a01838560081c1660ff169052565b6040614c6a818b01848660101c1660ff169052565b6060614c7f818c01858760181c1660ff169052565b6080614c93818d018688871c1660ff169052565b60a09350614caa848d01868860281c1660ff169052565b60c0614cbf818e01878960301c1660ff169052565b60e0614cd4818f01888a60381c1660ff169052565b60ff88861c8816166101008f0152614cf76101208f01888a60481c1660ff169052565b614d0c6101408f01888a60501c1660ff169052565b614d216101608f01888a60581c1660ff169052565b60ff88851c8816166101808f0152614d446101a08f01888a60681c1660ff169052565b614d596101c08f01888a60701c1660ff169052565b614d6e6101e08f01888a60781c1660ff169052565b60ff88841c8816166102008f0152614d916102208f01888a60881c1660ff169052565b614da66102408f01888a60901c1660ff169052565b614dbb6102608f01888a60981c1660ff169052565b60ff88871c8816166102808f0152614dde6102a08f01888a60a81c1660ff169052565b614df36102c08f01888a60b01c1660ff169052565b614e086102e08f01888a60b81c1660ff169052565b60ff88831c8816166103008f0152614e2b6103208f01888a60c81c1660ff169052565b614e406103408f01888a60d01c1660ff169052565b614e556103608f01888a60d81c1660ff169052565b60ff88821c8816166103808f0152505050505050614e7e6103a08901828460e81c1660ff169052565b614e936103c08901828460f01c1660ff169052565b5060f81c6103e08701526104009095019460019190910190602001614c2c565b90549082811015614ece5760ff821686526020909501946001015b82811015614eea5760ff600883901c1686526020909501946001015b82811015614f065760ff601083901c1686526020909501946001015b82811015614f225760ff601883901c1686526020909501946001015b82811015614f3f57602082901c60ff168652602095909501946001015b82811015614f5b5760ff602883901c1686526020909501946001015b82811015614f775760ff603083901c1686526020909501946001015b82811015614f935760ff603883901c1686526020909501946001015b82811015614faf5760ff604083901c1686526020909501946001015b82811015614fcb5760ff604883901c1686526020909501946001015b82811015614fe75760ff605083901c1686526020909501946001015b828110156150035760ff605883901c1686526020909501946001015b8281101561501f5760ff606083901c1686526020909501946001015b8281101561503b5760ff606883901c1686526020909501946001015b828110156150575760ff607083901c1686526020909501946001015b828110156150735760ff607883901c1686526020909501946001015b8281101561508f5760ff608083901c1686526020909501946001015b828110156150ab5760ff608883901c1686526020909501946001015b828110156150c75760ff609083901c1686526020909501946001015b828110156150e35760ff609883901c1686526020909501946001015b828110156150ff5760ff60a083901c1686526020909501946001015b8281101561511b5760ff60a883901c1686526020909501946001015b828110156151375760ff60b083901c1686526020909501946001015b828110156151535760ff60b883901c1686526020909501946001015b8281101561516f5760ff60c083901c1686526020909501946001015b8281101561518b5760ff60c883901c1686526020909501946001015b828110156151a75760ff60d083901c1686526020909501946001015b828110156151c35760ff60d883901c1686526020909501946001015b828110156151df5760ff60e083901c1686526020909501946001015b828110156151fb5760ff60e883901c1686526020909501946001015b828110156152175760ff60f083901c1686526020909501946001015b8281101561522d5760f882901c86526020860195505b5093949350505050565b6000815180845261524f816020860160208601615c01565b601f01601f19169290920160200192915050565b60008151615275818560208601615c01565b9290920192915050565b6000815461528c81615c2d565b8085526020600183811680156152a957600181146152bd576152eb565b60ff198516888401526040880195506152eb565b866000528260002060005b858110156152e35781548a82018601529083019084016152c8565b890184019650505b505050505092915050565b60e08252600061530960e0840183614c15565b838103602085015261531e8160018501614c15565b90508381036040850152615335816002850161527f565b9050838103606085015261534c816003850161527f565b905061536260048401546001600160a01b031690565b6001600160a01b0316608085015283810360a0850152615385816005850161527f565b905083810360c08501526133298160068501614be3565b600082516153ae818460208701615c01565b9190910192915050565b600083516153ca818460208801615c01565b8351908301906153de818360208801615c01565b01949350505050565b60008083546153f581615c2d565b6001828116801561540d576001811461541e5761544a565b60ff1984168752828701945061544a565b8786526020808720875b858110156154415781548a820152908401908201615428565b50505082870194505b50929695505050505050565b7f7b226e616d65223a2022466c697070616e646f202d205468652047616d65200081526000865161548e81601f850160208b01615c01565b7f222c226465736372697074696f6e223a20224120466c697070616e646f206761601f918401918201527f6d6520706c61796564206f6e2074686520626c6f636b636861696e2e222c2267603f8201527f616d655f76657273696f6e223a2022302e312e30202f20426c7565204f636561605f8201526e3711161133b0b6b2afb4b2111d101160891b607f820152865161552f81608e840160208b01615c01565b6f11161133b0b6b2afba3cb832911d101160811b608e9290910191820152855161556081609e840160208a01615c01565b7011161133b0b6b2afb632bb32b6111d101160791b609e92909101918201526155e16155d36155cd61559560af850189615263565b7f222c22696d616765223a2022646174613a696d6167652f7376672b786d6c3b62815265185cd94d8d0b60d21b602082015260260190565b86615263565b61227d60f01b815260020190565b98975050505050505050565b607b60f81b81527f226e616d65223a2022466c697070616e646f202d205468652047616d6520000060018201526000835161562f81601f850160208801615c01565b61088b60f21b601f918401918201527f226465736372697074696f6e223a20224120466c697070616e646f2067616d6560218201527f20706c61796564206f6e2074686520626c6f636b636861696e2e222c0000000060418201527f2267616d655f76657273696f6e223a2022302e312e30202f20426c7565204f63605d8201526419585b888b60da1b607d820152750899d85b5957da59088e88089d195cdd11d85b59488b60521b6082820152790899d85b5957dd1e5c19488e88089cdc5d585c9951dc9a59088b60321b609882015261486d61575961574c61574660b285017f22696d616765223a2022646174613a696d6167652f7376672b786d6c3b626173815263194d8d0b60e21b602082015260240190565b87615263565b601160f91b815260010190565b607d60f81b815260010190565b7f646174613a6170706c69636174696f6e2f6a736f6e3b6261736536342c00000081526000825161579e81601d850160208701615c01565b91909101601d0192915050565b681cdc1bdb9cdbdc995960ba1b815260090190565b6001600160a01b03858116825284166020820152604081018390526080606082018190526000906157f390830184615237565b9695505050505050565b6001600160a01b039390931683526020830191909152604082015260600190565b6020815260006135786020830184614ba9565b604080825283519082018190526000906020906060840190828701845b8281101561586d57815160ff168452928401929084019060010161584e565b505050838103828501526157f38186615237565b6020815260006135786020830184615237565b6080815260006158a76080830187615237565b82810360208401526158b98187615237565b6001600160a01b0386166040850152838103606085015290506158dc8185615237565b979650505050505050565b6040815260006158fa6040830185615237565b828103602084015261486d81856152f6565b60408152600061591f6040830185615237565b90508260208301529392505050565b60208082526032908201527f4552433732313a207472616e7366657220746f206e6f6e20455243373231526560408201527131b2b4bb32b91034b6b83632b6b2b73a32b960711b606082015260800190565b60208082526037908201527f596f752063616e206e6f7420666c697020612074696c65206174207468617420604082015276706f736974696f6e2c206f7574206f6620626f756e647360481b606082015260800190565b60208082526031908201527f4552433732313a207472616e736665722063616c6c6572206973206e6f74206f6040820152701ddb995c881b9bdc88185c1c1c9bdd9959607a1b606082015260800190565b602081528151602082015260208201516040820152600060408301516060808401526133296080840182614ba9565b606081526000615a6a60608301856152f6565b905060208083018460005b6002811015615a9857815163ffffffff1683529183019190830190600101615a75565b505050509392505050565b848152836020820152608060408201526000615ac26080830185614ba9565b905060018060a01b038316606083015295945050505050565b604080519081016001600160401b0381118282101715615afd57615afd615cc3565b60405290565b604051606081016001600160401b0381118282101715615afd57615afd615cc3565b604051601f8201601f191681016001600160401b0381118282101715615b4d57615b4d615cc3565b604052919050565b60006001600160401b03821115615b6e57615b6e615cc3565b5060051b60200190565b60006001600160401b03821115615b9157615b91615cc3565b50601f01601f191660200190565b60008219821115615bb257615bb2615c97565b500190565b600082615bc657615bc6615cad565b500490565b6000816000190483118215151615615be557615be5615c97565b500290565b600082821015615bfc57615bfc615c97565b500390565b60005b83811015615c1c578181015183820152602001615c04565b83811115612f075750506000910152565b600181811c90821680615c4157607f821691505b60208210811415615c6257634e487b7160e01b600052602260045260246000fd5b50919050565b6000600019821415615c7c57615c7c615c97565b5060010190565b600082615c9257615c92615cad565b500690565b634e487b7160e01b600052601160045260246000fd5b634e487b7160e01b600052601260045260246000fd5b634e487b7160e01b600052604160045260246000fd5b8015158114615ce757600080fd5b50565b6001600160e01b031981168114615ce757600080fdfe4142434445464748494a4b4c4d4e4f505152535455565758595a6162636465666768696a6b6c6d6e6f707172737475767778797a303132333435363738392b2fa2646970667358221220559345f4a248d2666c663c60f08adee72c3647250d44dcc06f94a00c2b8d71d764736f6c63430008040033",
  "linkReferences": {},
  "deployedLinkReferences": {}
}