{
  "_format": "hh-sol-artifact-1",
  "contractName": "Flippando",
  "sourceName": "contracts/Flippando.sol",
  "abi": [
    {
      "inputs": [
        {
          "internalType": "address",
          "name": "_svgAddress",
          "type": "address"
        },
        {
          "internalType": "address",
          "name": "_flipAddress",
          "type": "address"
        },
        {
          "internalType": "address",
          "name": "_flippandoBundlerAddress",
          "type": "address"
        }
      ],
      "stateMutability": "nonpayable",
      "type": "constructor"
    },
    {
      "anonymous": false,
      "inputs": [
        {
          "indexed": true,
          "internalType": "address",
          "name": "owner",
          "type": "address"
        },
        {
          "indexed": true,
          "internalType": "address",
          "name": "approved",
          "type": "address"
        },
        {
          "indexed": true,
          "internalType": "uint256",
          "name": "tokenId",
          "type": "uint256"
        }
      ],
      "name": "Approval",
      "type": "event"
    },
    {
      "anonymous": false,
      "inputs": [
        {
          "indexed": true,
          "internalType": "address",
          "name": "owner",
          "type": "address"
        },
        {
          "indexed": true,
          "internalType": "address",
          "name": "operator",
          "type": "address"
        },
        {
          "indexed": false,
          "internalType": "bool",
          "name": "approved",
          "type": "bool"
        }
      ],
      "name": "ApprovalForAll",
      "type": "event"
    },
    {
      "anonymous": false,
      "inputs": [
        {
          "components": [
            {
              "internalType": "uint256",
              "name": "boardWidth",
              "type": "uint256"
            },
            {
              "internalType": "uint256",
              "name": "boardHeight",
              "type": "uint256"
            },
            {
              "internalType": "uint256[]",
              "name": "buildingBlocks",
              "type": "uint256[]"
            }
          ],
          "indexed": false,
          "internalType": "struct Artwork",
          "name": "createdArtwork",
          "type": "tuple"
        }
      ],
      "name": "ArtworkCreated",
      "type": "event"
    },
    {
      "anonymous": false,
      "inputs": [
        {
          "indexed": false,
          "internalType": "string",
          "name": "id",
          "type": "string"
        },
        {
          "components": [
            {
              "internalType": "uint8[]",
              "name": "board",
              "type": "uint8[]"
            },
            {
              "internalType": "uint8[]",
              "name": "solvedBoard",
              "type": "uint8[]"
            },
            {
              "internalType": "string",
              "name": "gameLevel",
              "type": "string"
            },
            {
              "internalType": "string",
              "name": "gameType",
              "type": "string"
            },
            {
              "internalType": "address",
              "name": "player",
              "type": "address"
            },
            {
              "internalType": "string",
              "name": "id",
              "type": "string"
            },
            {
              "internalType": "uint256[]",
              "name": "gameTiles",
              "type": "uint256[]"
            }
          ],
          "indexed": false,
          "internalType": "struct Flippando.Game",
          "name": "game",
          "type": "tuple"
        },
        {
          "indexed": true,
          "internalType": "address",
          "name": "player",
          "type": "address"
        }
      ],
      "name": "GameCreated",
      "type": "event"
    },
    {
      "anonymous": false,
      "inputs": [
        {
          "indexed": false,
          "internalType": "string",
          "name": "id",
          "type": "string"
        },
        {
          "components": [
            {
              "internalType": "uint8[]",
              "name": "board",
              "type": "uint8[]"
            },
            {
              "internalType": "uint8[]",
              "name": "solvedBoard",
              "type": "uint8[]"
            },
            {
              "internalType": "string",
              "name": "gameLevel",
              "type": "string"
            },
            {
              "internalType": "string",
              "name": "gameType",
              "type": "string"
            },
            {
              "internalType": "address",
              "name": "player",
              "type": "address"
            },
            {
              "internalType": "string",
              "name": "id",
              "type": "string"
            },
            {
              "internalType": "uint256[]",
              "name": "gameTiles",
              "type": "uint256[]"
            }
          ],
          "indexed": false,
          "internalType": "struct Flippando.Game",
          "name": "game",
          "type": "tuple"
        }
      ],
      "name": "GameSolved",
      "type": "event"
    },
    {
      "anonymous": false,
      "inputs": [
        {
          "indexed": true,
          "internalType": "string",
          "name": "id",
          "type": "string"
        },
        {
          "components": [
            {
              "internalType": "uint8[]",
              "name": "board",
              "type": "uint8[]"
            },
            {
              "internalType": "uint8[]",
              "name": "solvedBoard",
              "type": "uint8[]"
            },
            {
              "internalType": "string",
              "name": "gameLevel",
              "type": "string"
            },
            {
              "internalType": "string",
              "name": "gameType",
              "type": "string"
            },
            {
              "internalType": "address",
              "name": "player",
              "type": "address"
            },
            {
              "internalType": "string",
              "name": "id",
              "type": "string"
            },
            {
              "internalType": "uint256[]",
              "name": "gameTiles",
              "type": "uint256[]"
            }
          ],
          "indexed": false,
          "internalType": "struct Flippando.Game",
          "name": "game",
          "type": "tuple"
        },
        {
          "indexed": false,
          "internalType": "uint32[2]",
          "name": "positions",
          "type": "uint32[2]"
        }
      ],
      "name": "GameState",
      "type": "event"
    },
    {
      "anonymous": false,
      "inputs": [
        {
          "indexed": false,
          "internalType": "string",
          "name": "id",
          "type": "string"
        },
        {
          "indexed": false,
          "internalType": "uint256",
          "name": "tokenId",
          "type": "uint256"
        }
      ],
      "name": "NFTCreated",
      "type": "event"
    },
    {
      "anonymous": false,
      "inputs": [
        {
          "indexed": true,
          "internalType": "address",
          "name": "from",
          "type": "address"
        },
        {
          "indexed": true,
          "internalType": "address",
          "name": "to",
          "type": "address"
        },
        {
          "indexed": true,
          "internalType": "uint256",
          "name": "tokenId",
          "type": "uint256"
        }
      ],
      "name": "Transfer",
      "type": "event"
    },
    {
      "inputs": [
        {
          "internalType": "address",
          "name": "to",
          "type": "address"
        },
        {
          "internalType": "uint256",
          "name": "tokenId",
          "type": "uint256"
        }
      ],
      "name": "approve",
      "outputs": [],
      "stateMutability": "nonpayable",
      "type": "function"
    },
    {
      "inputs": [
        {
          "internalType": "address",
          "name": "owner",
          "type": "address"
        }
      ],
      "name": "balanceOf",
      "outputs": [
        {
          "internalType": "uint256",
          "name": "",
          "type": "uint256"
        }
      ],
      "stateMutability": "view",
      "type": "function"
    },
    {
      "inputs": [
        {
          "internalType": "uint8[]",
          "name": "arr",
          "type": "uint8[]"
        }
      ],
      "name": "boardHasZeroValues",
      "outputs": [
        {
          "internalType": "bool",
          "name": "",
          "type": "bool"
        }
      ],
      "stateMutability": "pure",
      "type": "function"
    },
    {
      "inputs": [
        {
          "internalType": "string",
          "name": "id",
          "type": "string"
        },
        {
          "internalType": "uint256",
          "name": "boardSize",
          "type": "uint256"
        },
        {
          "internalType": "string",
          "name": "gameType",
          "type": "string"
        }
      ],
      "name": "create_game",
      "outputs": [],
      "stateMutability": "nonpayable",
      "type": "function"
    },
    {
      "inputs": [
        {
          "internalType": "string",
          "name": "id",
          "type": "string"
        }
      ],
      "name": "create_nft",
      "outputs": [],
      "stateMutability": "nonpayable",
      "type": "function"
    },
    {
      "inputs": [
        {
          "internalType": "string",
          "name": "gameType",
          "type": "string"
        }
      ],
      "name": "create_single_test_nft",
      "outputs": [],
      "stateMutability": "nonpayable",
      "type": "function"
    },
    {
      "inputs": [],
      "name": "flip",
      "outputs": [
        {
          "internalType": "contract IFLIP",
          "name": "",
          "type": "address"
        }
      ],
      "stateMutability": "view",
      "type": "function"
    },
    {
      "inputs": [
        {
          "internalType": "string",
          "name": "id",
          "type": "string"
        },
        {
          "internalType": "uint32[2]",
          "name": "boardPositions",
          "type": "uint32[2]"
        }
      ],
      "name": "flip_tiles",
      "outputs": [],
      "stateMutability": "nonpayable",
      "type": "function"
    },
    {
      "inputs": [],
      "name": "flippandoBundler",
      "outputs": [
        {
          "internalType": "contract IFLIPPANDOBUNDLER",
          "name": "",
          "type": "address"
        }
      ],
      "stateMutability": "view",
      "type": "function"
    },
    {
      "inputs": [
        {
          "internalType": "string",
          "name": "",
          "type": "string"
        }
      ],
      "name": "games",
      "outputs": [
        {
          "internalType": "string",
          "name": "gameLevel",
          "type": "string"
        },
        {
          "internalType": "string",
          "name": "gameType",
          "type": "string"
        },
        {
          "internalType": "address",
          "name": "player",
          "type": "address"
        },
        {
          "internalType": "string",
          "name": "id",
          "type": "string"
        }
      ],
      "stateMutability": "view",
      "type": "function"
    },
    {
      "inputs": [
        {
          "internalType": "uint256",
          "name": "tokenId",
          "type": "uint256"
        },
        {
          "internalType": "uint8[]",
          "name": "testBoard",
          "type": "uint8[]"
        },
        {
          "internalType": "string",
          "name": "gameType",
          "type": "string"
        }
      ],
      "name": "generateTestTokenURI",
      "outputs": [
        {
          "internalType": "string",
          "name": "",
          "type": "string"
        }
      ],
      "stateMutability": "view",
      "type": "function"
    },
    {
      "inputs": [
        {
          "internalType": "uint256",
          "name": "tokenId",
          "type": "uint256"
        },
        {
          "internalType": "string",
          "name": "id",
          "type": "string"
        }
      ],
      "name": "generateTokenURI",
      "outputs": [
        {
          "internalType": "string",
          "name": "",
          "type": "string"
        }
      ],
      "stateMutability": "view",
      "type": "function"
    },
    {
      "inputs": [
        {
          "internalType": "uint256",
          "name": "tokenId",
          "type": "uint256"
        }
      ],
      "name": "getApproved",
      "outputs": [
        {
          "internalType": "address",
          "name": "",
          "type": "address"
        }
      ],
      "stateMutability": "view",
      "type": "function"
    },
    {
      "inputs": [],
      "name": "getUserNFTs",
      "outputs": [
        {
          "internalType": "uint256[]",
          "name": "",
          "type": "uint256[]"
        }
      ],
      "stateMutability": "view",
      "type": "function"
    },
    {
      "inputs": [
        {
          "internalType": "uint256",
          "name": "",
          "type": "uint256"
        }
      ],
      "name": "inTransit",
      "outputs": [
        {
          "internalType": "bool",
          "name": "",
          "type": "bool"
        }
      ],
      "stateMutability": "view",
      "type": "function"
    },
    {
      "inputs": [
        {
          "internalType": "address",
          "name": "owner",
          "type": "address"
        },
        {
          "internalType": "address",
          "name": "operator",
          "type": "address"
        }
      ],
      "name": "isApprovedForAll",
      "outputs": [
        {
          "internalType": "bool",
          "name": "",
          "type": "bool"
        }
      ],
      "stateMutability": "view",
      "type": "function"
    },
    {
      "inputs": [
        {
          "internalType": "uint256",
          "name": "boardWidth",
          "type": "uint256"
        },
        {
          "internalType": "uint256",
          "name": "boardHeight",
          "type": "uint256"
        },
        {
          "internalType": "uint256[]",
          "name": "tokenIds",
          "type": "uint256[]"
        }
      ],
      "name": "makeArt",
      "outputs": [],
      "stateMutability": "nonpayable",
      "type": "function"
    },
    {
      "inputs": [],
      "name": "name",
      "outputs": [
        {
          "internalType": "string",
          "name": "",
          "type": "string"
        }
      ],
      "stateMutability": "view",
      "type": "function"
    },
    {
      "inputs": [
        {
          "internalType": "uint256",
          "name": "tokenId",
          "type": "uint256"
        }
      ],
      "name": "ownerOf",
      "outputs": [
        {
          "internalType": "address",
          "name": "",
          "type": "address"
        }
      ],
      "stateMutability": "view",
      "type": "function"
    },
    {
      "inputs": [
        {
          "internalType": "address",
          "name": "from",
          "type": "address"
        },
        {
          "internalType": "address",
          "name": "to",
          "type": "address"
        },
        {
          "internalType": "uint256",
          "name": "tokenId",
          "type": "uint256"
        }
      ],
      "name": "safeTransferFrom",
      "outputs": [],
      "stateMutability": "nonpayable",
      "type": "function"
    },
    {
      "inputs": [
        {
          "internalType": "address",
          "name": "from",
          "type": "address"
        },
        {
          "internalType": "address",
          "name": "to",
          "type": "address"
        },
        {
          "internalType": "uint256",
          "name": "tokenId",
          "type": "uint256"
        },
        {
          "internalType": "bytes",
          "name": "_data",
          "type": "bytes"
        }
      ],
      "name": "safeTransferFrom",
      "outputs": [],
      "stateMutability": "nonpayable",
      "type": "function"
    },
    {
      "inputs": [
        {
          "internalType": "address",
          "name": "operator",
          "type": "address"
        },
        {
          "internalType": "bool",
          "name": "approved",
          "type": "bool"
        }
      ],
      "name": "setApprovalForAll",
      "outputs": [],
      "stateMutability": "nonpayable",
      "type": "function"
    },
    {
      "inputs": [
        {
          "internalType": "bytes4",
          "name": "interfaceId",
          "type": "bytes4"
        }
      ],
      "name": "supportsInterface",
      "outputs": [
        {
          "internalType": "bool",
          "name": "",
          "type": "bool"
        }
      ],
      "stateMutability": "view",
      "type": "function"
    },
    {
      "inputs": [],
      "name": "svg",
      "outputs": [
        {
          "internalType": "contract ISVG",
          "name": "",
          "type": "address"
        }
      ],
      "stateMutability": "view",
      "type": "function"
    },
    {
      "inputs": [],
      "name": "symbol",
      "outputs": [
        {
          "internalType": "string",
          "name": "",
          "type": "string"
        }
      ],
      "stateMutability": "view",
      "type": "function"
    },
    {
      "inputs": [
        {
          "internalType": "uint256",
          "name": "index",
          "type": "uint256"
        }
      ],
      "name": "tokenByIndex",
      "outputs": [
        {
          "internalType": "uint256",
          "name": "",
          "type": "uint256"
        }
      ],
      "stateMutability": "view",
      "type": "function"
    },
    {
      "inputs": [
        {
          "internalType": "address",
          "name": "owner",
          "type": "address"
        },
        {
          "internalType": "uint256",
          "name": "index",
          "type": "uint256"
        }
      ],
      "name": "tokenOfOwnerByIndex",
      "outputs": [
        {
          "internalType": "uint256",
          "name": "",
          "type": "uint256"
        }
      ],
      "stateMutability": "view",
      "type": "function"
    },
    {
      "inputs": [
        {
          "internalType": "uint256",
          "name": "tokenId",
          "type": "uint256"
        }
      ],
      "name": "tokenURI",
      "outputs": [
        {
          "internalType": "string",
          "name": "",
          "type": "string"
        }
      ],
      "stateMutability": "view",
      "type": "function"
    },
    {
      "inputs": [],
      "name": "totalSupply",
      "outputs": [
        {
          "internalType": "uint256",
          "name": "",
          "type": "uint256"
        }
      ],
      "stateMutability": "view",
      "type": "function"
    },
    {
      "inputs": [
        {
          "internalType": "address",
          "name": "from",
          "type": "address"
        },
        {
          "internalType": "address",
          "name": "to",
          "type": "address"
        },
        {
          "internalType": "uint256",
          "name": "tokenId",
          "type": "uint256"
        }
      ],
      "name": "transferFrom",
      "outputs": [],
      "stateMutability": "nonpayable",
      "type": "function"
    }
  ],
  "bytecode": "0x60806040523480156200001157600080fd5b5060405162005fac38038062005fac8339810160408190526200003491620001b4565b6040805180820182526012815271466c697070616e646f20556e69766572736560701b6020808301918252835180850190945260048452630464c49560e41b9084015281519192916200008a91600091620000f1565b508051620000a0906001906020840190620000f1565b5050600f80546001600160a01b03199081163317909155600b80546001600160a01b03968716908316179055600c80549486169482169490941790935550600d80549190931691161790556200023a565b828054620000ff90620001fd565b90600052602060002090601f0160209004810192826200012357600085556200016e565b82601f106200013e57805160ff19168380011785556200016e565b828001600101855582156200016e579182015b828111156200016e57825182559160200191906001019062000151565b506200017c92915062000180565b5090565b5b808211156200017c576000815560010162000181565b80516001600160a01b0381168114620001af57600080fd5b919050565b600080600060608486031215620001c9578283fd5b620001d48462000197565b9250620001e46020850162000197565b9150620001f46040850162000197565b90509250925092565b600181811c908216806200021257607f821691505b602082108114156200023457634e487b7160e01b600052602260045260246000fd5b50919050565b615d62806200024a6000396000f3fe608060405234801561001057600080fd5b506004361061017a5760003560e01c80636d20931a116100d45780636d20931a146102dc57806370a08231146102ff57806395d89b4114610312578063a22cb4651461031a578063a2a94fe71461032d578063a3bab28614610340578063b2eb872c14610353578063b88d4fde14610366578063bd85f55f14610379578063c87b56dd1461038c578063cb5e19781461039f578063cde4efa9146103b2578063e817b439146103c5578063e985e9c5146103d8578063fdc5ab8e146103eb57600080fd5b806301ffc9a71461017f5780630500bc41146101a757806306fdde03146101bc578063081812fc146101d1578063095ea7b3146101fc57806309b089fe1461020f57806318160ddd1461022257806323b872dd146102345780632f745c5914610247578063310c1f611461025a57806342842e0e1461026d57806343a2d4b0146102805780634f6ccce7146102a35780636352211e146102b6578063642cb825146102c9575b600080fd5b61019261018d36600461476b565b610400565b60405190151581526020015b60405180910390f35b6101ba6101b53660046148e6565b610411565b005b6101c46108e9565b60405161019e919061586d565b6101e46101df366004614a25565b61097b565b6040516001600160a01b03909116815260200161019e565b6101ba61020a3660046146f4565b610a03565b6101ba61021d366004614847565b610b14565b6009545b60405190815260200161019e565b6101ba61024236600461460b565b6117d5565b6102266102553660046146f4565b611806565b6101c4610268366004614a3d565b61189c565b6101ba61027b36600461460b565b611993565b61019261028e366004614a25565b60116020526000908152604090205460ff1681565b6102266102b1366004614a25565b6119ae565b6101e46102c4366004614a25565b611a4f565b6101c46102d7366004614a8f565b611ac6565b6102ef6102ea3660046147a3565b611eec565b60405161019e9493929190615880565b61022661030d3660046145bf565b6120c8565b6101c461214f565b6101ba6103283660046146be565b61215e565b6101ba61033b366004614ad3565b61216d565b6101ba61034e3660046147a3565b6126db565b6101ba6103613660046147a3565b612a01565b6101ba610374366004614646565b612ea6565b600b546101e4906001600160a01b031681565b6101c461039a366004614a25565b612ede565b600d546101e4906001600160a01b031681565b600c546101e4906001600160a01b031681565b6101926103d336600461471d565b612ee9565b6101926103e63660046145d9565b612f4d565b6103f3612f7b565b60405161019e919061580a565b600061040b82613037565b92915050565b61041a8161305c565b61045f5760405162461bcd60e51b8152602060048201526011602482015270496e76616c69642067616d65207479706560781b60448201526064015b60405180910390fd5b610468826131c3565b6104a95760405162461bcd60e51b8152602060048201526012602482015271125b9d985b1a590819d85b59481b195d995b60721b6044820152606401610456565b336010846040516104ba919061536d565b908152602001604051809103902060040160006101000a8154816001600160a01b0302191690836001600160a01b0316021790555082601084604051610500919061536d565b9081526020016040518091039020600501908051906020019061052492919061435a565b50816001600160401b0381111561054b57634e487b7160e01b600052604160045260246000fd5b604051908082528060200260200182016040528015610574578160200160208202803683370190505b50601084604051610585919061536d565b908152602001604051809103902060000190805190602001906105a99291906143de565b50816001600160401b038111156105d057634e487b7160e01b600052604160045260246000fd5b6040519080825280602002602001820160405280156105f9578160200160208202803683370190505b5060108460405161060a919061536d565b9081526020016040518091039020600101908051906020019061062e9291906143de565b50610638826131e1565b601084604051610648919061536d565b9081526020016040518091039020600201908051906020019061066c92919061435a565b508060108460405161067e919061536d565b908152602001604051809103902060030190805190602001906106a292919061435a565b5060408051808201909152600a8152691cdc5d585c9951dc9a5960b21b6020918201528151908201207fc3ddc1f4f3920201d34a3f107fe291f8abe441589f07c3f734acaaaf64d57c2e1415610741576107076010610702600485615ba3565b613302565b601084604051610717919061536d565b9081526020016040518091039020600601908051906020019061073b92919061447f565b50610887565b6040805180820190915260048152636469636560e01b6020918201528151908201207f01f9ca87172ecd8343d776bdd6024a4028f5596c76320882abd93e3bd1c724eb141561079a576107076006610702600485615ba3565b604080518082019091526009815268686578616772616d7360b81b6020918201528151908201207f1ab43e081de59dbb11ddd139375d1386f983b7c753667dd103c496cf3ba13241148061083357506040805180820190915260098152681cdc1bdb9cdbdc995960ba1b6020918201528151908201207fdbd46d7dad44ed00275a5702bce33a878a0245e574e0745556c911b86e8bfc3d145b156108475761070760046107028185615ba3565b60405162461bcd60e51b8152602060048201526015602482015274556e737570706f727465642067616d65207479706560581b6044820152606401610456565b336001600160a01b03167f19bf20acb39695a511e15960f093faf157e1c0a74ffdd283d4750e7a7b44c6ac846010866040516108c3919061536d565b9081526040519081900360200181206108dc92916158d3565b60405180910390a2505050565b6060600080546108f890615c19565b80601f016020809104026020016040519081016040528092919081815260200182805461092490615c19565b80156109715780601f1061094657610100808354040283529160200191610971565b820191906000526020600020905b81548152906001019060200180831161095457829003601f168201915b5050505050905090565b60006109868261346e565b6109e75760405162461bcd60e51b815260206004820152602c60248201527f4552433732313a20617070726f76656420717565727920666f72206e6f6e657860448201526b34b9ba32b73a103a37b5b2b760a11b6064820152608401610456565b506000908152600460205260409020546001600160a01b031690565b6000610a0e82611a4f565b9050806001600160a01b0316836001600160a01b03161415610a7c5760405162461bcd60e51b815260206004820152602160248201527f4552433732313a20617070726f76616c20746f2063757272656e74206f776e656044820152603960f91b6064820152608401610456565b336001600160a01b0382161480610a985750610a988133612f4d565b610b055760405162461bcd60e51b815260206004820152603860248201527f4552433732313a20617070726f76652063616c6c6572206973206e6f74206f776044820152771b995c881b9bdc88185c1c1c9bdd995908199bdc88185b1b60421b6064820152608401610456565b610b0f838361348b565b505050565b60006001600160a01b0316601083604051610b2f919061536d565b908152604051908190036020019020600401546001600160a01b03161415610b8f5760405162461bcd60e51b815260206004820152601360248201527211d85b5948191bd95cc81b9bdd08195e1a5cdd606a1b6044820152606401610456565b601082604051610b9f919061536d565b90815260405190819003602001902054815163ffffffff1610610bd45760405162461bcd60e51b81526004016104569061596c565b601082604051610be4919061536d565b90815260405160209181900382019020549082015163ffffffff1610610c1c5760405162461bcd60e51b81526004016104569061596c565b6000806004601085604051610c31919061536d565b90815260405190819003602001902054610c4b9190615ba3565b4233604051602001610c5e929190615791565b6040516020818303038152906040528051906020012060001c610c819190615c6f565b610c8c906001615b8b565b91506004601085604051610ca0919061536d565b90815260405190819003602001902054610cba9190615ba3565b610cc642610428615b8b565b33604051602001610cd8929190615791565b6040516020818303038152906040528051906020012060001c610cfb9190615c6f565b610d06906001615b8b565b9050601084604051610d18919061536d565b908152604051908190036020019020836000602002015163ffffffff1681548110610d5357634e487b7160e01b600052603260045260246000fd5b60009182526020918290209181049091015460ff601f9092166101000a900416610e4357601084604051610d87919061536d565b908152604051908190036020019020600601610da4600184615bd6565b81548110610dc257634e487b7160e01b600052603260045260246000fd5b9060005260206000200154601085604051610ddd919061536d565b908152604051908190036020019020846000602002015163ffffffff1681548110610e1857634e487b7160e01b600052603260045260246000fd5b90600052602060002090602091828204019190066101000a81548160ff021916908360ff1602179055505b601084604051610e53919061536d565b908152604051908190036020019020836001602002015163ffffffff1681548110610e8e57634e487b7160e01b600052603260045260246000fd5b60009182526020918290209181049091015460ff601f9092166101000a900416610f7e57601084604051610ec2919061536d565b908152604051908190036020019020600601610edf600183615bd6565b81548110610efd57634e487b7160e01b600052603260045260246000fd5b9060005260206000200154601085604051610f18919061536d565b908152604051908190036020019020846001602002015163ffffffff1681548110610f5357634e487b7160e01b600052603260045260246000fd5b90600052602060002090602091828204019190066101000a81548160ff021916908360ff1602179055505b601084604051610f8e919061536d565b908152604051908190036020019020836001602002015163ffffffff1681548110610fc957634e487b7160e01b600052603260045260246000fd5b90600052602060002090602091828204019190069054906101000a900460ff1660ff16601085604051610ffc919061536d565b908152604051908190036020019020846000602002015163ffffffff168154811061103757634e487b7160e01b600052603260045260246000fd5b60009182526020918290209181049091015460ff601f9092166101000a90041614156112415760108460405161106d919061536d565b908152604051908190036020019020836000602002015163ffffffff16815481106110a857634e487b7160e01b600052603260045260246000fd5b90600052602060002090602091828204019190069054906101000a900460ff166010856040516110d8919061536d565b908152604051908190036020019020600101846000602002015163ffffffff168154811061111657634e487b7160e01b600052603260045260246000fd5b90600052602060002090602091828204019190066101000a81548160ff021916908360ff160217905550601084604051611150919061536d565b908152604051908190036020019020836001602002015163ffffffff168154811061118b57634e487b7160e01b600052603260045260246000fd5b90600052602060002090602091828204019190069054906101000a900460ff166010856040516111bb919061536d565b9081526020016040518091039020600101846001600281106111ed57634e487b7160e01b600052603260045260246000fd5b602002015163ffffffff168154811061121657634e487b7160e01b600052603260045260246000fd5b90600052602060002090602091828204019190066101000a81548160ff021916908360ff1602179055505b600061126b601086604051611256919061536d565b908152604051908190036020019020546134f9565b90506000805b601087604051611281919061536d565b9081526040519081900360200190205481101561131c576010876040516112a8919061536d565b908152602001604051809103902060010181815481106112d857634e487b7160e01b600052603260045260246000fd5b60009182526020918290209181049091015460ff601f9092166101000a90041661130a57611307826001615b8b565b91505b8061131481615c54565b915050611271565b5081811161165a57601086604051611334919061536d565b908152604051908190036020019020856001602002015163ffffffff168154811061136f57634e487b7160e01b600052603260045260246000fd5b90600052602060002090602091828204019190069054906101000a900460ff1660ff166010876040516113a2919061536d565b908152604051908190036020019020866000602002015163ffffffff16815481106113dd57634e487b7160e01b600052603260045260246000fd5b60009182526020918290209181049091015460ff601f9092166101000a9004161461165a57601086604051611412919061536d565b908152604051908190036020019020856001602002015163ffffffff168154811061144d57634e487b7160e01b600052603260045260246000fd5b90600052602060002090602091828204019190069054906101000a900460ff1660108760405161147d919061536d565b908152604051908190036020019020866000602002015163ffffffff16815481106114b857634e487b7160e01b600052603260045260246000fd5b90600052602060002090602091828204019190066101000a81548160ff021916908360ff1602179055506010866040516114f2919061536d565b908152604051908190036020019020856000602002015163ffffffff168154811061152d57634e487b7160e01b600052603260045260246000fd5b90600052602060002090602091828204019190069054906101000a900460ff1660108760405161155d919061536d565b90815260200160405180910390206001018660016002811061158f57634e487b7160e01b600052603260045260246000fd5b602002015163ffffffff16815481106115b857634e487b7160e01b600052603260045260246000fd5b90600052602060002090602091828204019190066101000a81548160ff021916908360ff16021790556010876040516115f1919061536d565b908152604051908190036020019020600101866000602002015163ffffffff168154811061162f57634e487b7160e01b600052603260045260246000fd5b90600052602060002090602091828204019190066101000a81548160ff021916908360ff1602179055505b85604051611668919061536d565b60405180910390207f6577aff1d72bca1d385ac76148865f215947d38ef437ea0deeb5496ce36aa20d6010886040516116a1919061536d565b9081526040519081900360200181206116bb918990615a43565b60405180910390a2506000805b6010876040516116d8919061536d565b90815260405190819003602001902054811015611773576010876040516116ff919061536d565b9081526020016040518091039020600101818154811061172f57634e487b7160e01b600052603260045260246000fd5b60009182526020918290209181049091015460ff601f9092166101000a9004166117615761175e826001615b8b565b91505b8061176b81615c54565b9150506116c8565b50806117cd577f7043358b708d80879132e3a6c6cdac917ba587145eef870c20bc31ba92dbcfd7866010886040516117ab919061536d565b9081526040519081900360200181206117c492916158d3565b60405180910390a15b505050505050565b6117df3382613550565b6117fb5760405162461bcd60e51b8152600401610456906159c3565b610b0f838383613619565b6000611811836120c8565b82106118735760405162461bcd60e51b815260206004820152602b60248201527f455243373231456e756d657261626c653a206f776e657220696e646578206f7560448201526a74206f6620626f756e647360a81b6064820152608401610456565b506001600160a01b03919091166000908152600760209081526040808320938352929052205490565b600b5460405163e248d45760e01b8152606091631dcd6500916000916001600160a01b03169063e248d4579084906118da908990899060040161581d565b60006040518083038187803b1580156118f257600080fd5b5086fa158015611906573d6000803e3d6000fd5b50505050506040513d6000823e601f3d908101601f1916820160405261192f91908101906147d5565b9050600061196561193f886131e1565b836040516020016119519291906155be565b6040516020818303038152906040526137c0565b9050806040516020016119789190615737565b60405160208183030381529060405293505050509392505050565b610b0f83838360405180602001604052806000815250612ea6565b60006119b960095490565b8210611a1c5760405162461bcd60e51b815260206004820152602c60248201527f455243373231456e756d657261626c653a20676c6f62616c20696e646578206f60448201526b7574206f6620626f756e647360a01b6064820152608401610456565b60098281548110611a3d57634e487b7160e01b600052603260045260246000fd5b90600052602060002001549050919050565b6000818152600260205260408120546001600160a01b03168061040b5760405162461bcd60e51b815260206004820152602960248201527f4552433732313a206f776e657220717565727920666f72206e6f6e657869737460448201526832b73a103a37b5b2b760b91b6064820152608401610456565b60606000601083604051611ada919061536d565b90815260408051918290036020908101832080546101009281028501830190935260e0840183815290928492849190840182828015611b5657602002820191906000526020600020906000905b825461010083900a900460ff16815260206001928301818104948501949093039092029101808411611b275790505b5050505050815260200160018201805480602002602001604051908101604052809291908181526020018280548015611bcc57602002820191906000526020600020906000905b825461010083900a900460ff16815260206001928301818104948501949093039092029101808411611b9d5790505b50505050508152602001600282018054611be590615c19565b80601f0160208091040260200160405190810160405280929190818152602001828054611c1190615c19565b8015611c5e5780601f10611c3357610100808354040283529160200191611c5e565b820191906000526020600020905b815481529060010190602001808311611c4157829003601f168201915b50505050508152602001600382018054611c7790615c19565b80601f0160208091040260200160405190810160405280929190818152602001828054611ca390615c19565b8015611cf05780601f10611cc557610100808354040283529160200191611cf0565b820191906000526020600020905b815481529060010190602001808311611cd357829003601f168201915b505050918352505060048201546001600160a01b03166020820152600582018054604090920191611d2090615c19565b80601f0160208091040260200160405190810160405280929190818152602001828054611d4c90615c19565b8015611d995780601f10611d6e57610100808354040283529160200191611d99565b820191906000526020600020905b815481529060010190602001808311611d7c57829003601f168201915b5050505050815260200160068201805480602002602001604051908101604052809291908181526020018280548015611df157602002820191906000526020600020905b815481526020019060010190808311611ddd575b505050919092525050600b546020830151606084015160405163e248d45760e01b81529495506000946001600160a01b03909316935063e248d45792611e3b92919060040161581d565b60006040518083038186803b158015611e5357600080fd5b505afa158015611e67573d6000803e3d6000fd5b505050506040513d6000823e601f3d908101601f19168201604052611e8f91908101906147d5565b90506000611ebf611e9f876131e1565b868560600151866040015186604051602001611951959493929190615427565b905080604051602001611ed29190615737565b604051602081830303815290604052935050505092915050565b80516020818301810180516010825292820191909301209152600281018054611f1490615c19565b80601f0160208091040260200160405190810160405280929190818152602001828054611f4090615c19565b8015611f8d5780601f10611f6257610100808354040283529160200191611f8d565b820191906000526020600020905b815481529060010190602001808311611f7057829003601f168201915b505050505090806003018054611fa290615c19565b80601f0160208091040260200160405190810160405280929190818152602001828054611fce90615c19565b801561201b5780601f10611ff05761010080835404028352916020019161201b565b820191906000526020600020905b815481529060010190602001808311611ffe57829003601f168201915b505050600484015460058501805494956001600160a01b0390921694919350915061204590615c19565b80601f016020809104026020016040519081016040528092919081815260200182805461207190615c19565b80156120be5780601f10612093576101008083540402835291602001916120be565b820191906000526020600020905b8154815290600101906020018083116120a157829003601f168201915b5050505050905084565b60006001600160a01b0382166121335760405162461bcd60e51b815260206004820152602a60248201527f4552433732313a2062616c616e636520717565727920666f7220746865207a65604482015269726f206164647265737360b01b6064820152608401610456565b506001600160a01b031660009081526003602052604090205490565b6060600180546108f890615c19565b612169338383613935565b5050565b6121778284615bb7565b8151146121db5760405162461bcd60e51b815260206004820152602c60248201527f4e756d626572206f6620746f6b656e496473206d757374206d6174636820746860448201526b6520626f6172642073697a6560a01b6064820152608401610456565b60005b815181101561259b57600061221983838151811061220c57634e487b7160e01b600052603260045260246000fd5b6020026020010151611a4f565b90506001600160a01b03811633141561226e5760405162461bcd60e51b815260206004820152601760248201527643616e27742075736520796f7572206f776e204e46547360481b6044820152606401610456565b600d546122859082906001600160a01b0316612f4d565b6122cf5760405162461bcd60e51b815260206004820152601b60248201527a139195081a5cc81b9bdd08185c1c1c9bdd995908199bdc88185b1b602a1b6044820152606401610456565b600d5483516001600160a01b039091169063d53140029085908590811061230657634e487b7160e01b600052603260045260246000fd5b60200260200101516040518263ffffffff1660e01b815260040161232c91815260200190565b602060405180830381600087803b15801561234657600080fd5b505af115801561235a573d6000803e3d6000fd5b505050506040513d601f19601f8201168201806040525081019061237e919061474f565b156123cb5760405162461bcd60e51b815260206004820152601e60248201527f4e46542069732070617274206f6620616e6f7468657220617274776f726b00006044820152606401610456565b601160008484815181106123ef57634e487b7160e01b600052603260045260246000fd5b60209081029190910181015182528101919091526040016000205460ff161561244e5760405162461bcd60e51b8152602060048201526011602482015270139195081a5cc81a5b881d1c985b9cda5d607a1b6044820152606401610456565b600c5483516001600160a01b039091169063dc5fb00090839086908690811061248757634e487b7160e01b600052603260045260246000fd5b60200260200101516040518363ffffffff1660e01b81526004016124c09291906001600160a01b03929092168252602082015260400190565b600060405180830381600087803b1580156124da57600080fd5b505af11580156124ee573d6000803e3d6000fd5b50505050612534813385858151811061251757634e487b7160e01b600052603260045260246000fd5b602002602001015160405180602001604052806000815250613a00565b60016011600085858151811061255a57634e487b7160e01b600052603260045260246000fd5b6020026020010151815260200190815260200160002060006101000a81548160ff02191690831515021790555050808061259390615c54565b9150506121de565b50600d54604051634af701a360e01b81526000916001600160a01b031690634af701a3906125d3908790879087903390600401615a8f565b600060405180830381600087803b1580156125ed57600080fd5b505af1158015612601573d6000803e3d6000fd5b505050506040513d6000823e601f3d908101601f19168201604052612629919081019061494f565b90507f77bb4d6591ce4b7f7b8977b562edb2b31b6d8cafa7b067f0ef9517fd48013df78160405161265a9190615a14565b60405180910390a160005b82518110156126d45760006011600085848151811061269457634e487b7160e01b600052603260045260246000fd5b6020026020010151815260200190815260200160002060006101000a81548160ff02191690831515021790555080806126cc90615c54565b915050612665565b5050505050565b336001600160a01b03166010826040516126f5919061536d565b908152604051908190036020019020600401546001600160a01b0316146127705760405162461bcd60e51b815260206004820152602960248201527f4f6e6c79207468652067616d65277320706c617965722063616e20637265617460448201526819481d1a194813919560ba1b6064820152608401610456565b612800601082604051612783919061536d565b90815260408051918290036020908101832060010180548083028501830190935282845291908301828280156127f657602002820191906000526020600020906000905b825461010083900a900460ff168152602060019283018181049485019490930390920291018084116127c75790505b5050505050612ee9565b1561284d5760405162461bcd60e51b815260206004820152601f60248201527f596f752063616e2774206d696e7420616e20756e736f6c7665642067616d65006044820152606401610456565b61285b600e80546001019055565b6000612866600e5490565b90506128723382613a33565b600061287e8284611ac6565b905061288a8282613a4d565b600d546128a1906001600160a01b0316600161215e565b60006040516020016128b29061577c565b604051602081830303815290604052805190602001206010856040516128d8919061536d565b90815260200160405180910390206003016040516020016128f991906153b8565b60405160208183030381529060405280519060200120141561291d57506004612921565b5060015b600c546040516001600160a01b0390911690638778f5909060109061294790889061536d565b9081526040519081900360200181206004908101546001600160e01b031960e085901b168352612987926001600160a01b039091169188918791016157e9565b600060405180830381600087803b1580156129a157600080fd5b505af11580156129b5573d6000803e3d6000fd5b505050506129c284613ad8565b7f3f1a9864b5687304a31c9a81973dcaab589c026ee94a9f585cbe48323b77329884846040516129f39291906158f8565b60405180910390a150505050565b60408051601080825261022082019092526000916020820161020080368337019050509050600181600081518110612a4957634e487b7160e01b600052603260045260246000fd5b602002602001019060ff16908160ff1681525050600281600181518110612a8057634e487b7160e01b600052603260045260246000fd5b602002602001019060ff16908160ff1681525050600481600281518110612ab757634e487b7160e01b600052603260045260246000fd5b602002602001019060ff16908160ff1681525050600181600381518110612aee57634e487b7160e01b600052603260045260246000fd5b602002602001019060ff16908160ff1681525050600281600481518110612b2557634e487b7160e01b600052603260045260246000fd5b602002602001019060ff16908160ff1681525050600481600581518110612b5c57634e487b7160e01b600052603260045260246000fd5b602002602001019060ff16908160ff1681525050600381600681518110612b9357634e487b7160e01b600052603260045260246000fd5b602002602001019060ff16908160ff1681525050600381600781518110612bca57634e487b7160e01b600052603260045260246000fd5b602002602001019060ff16908160ff1681525050600481600881518110612c0157634e487b7160e01b600052603260045260246000fd5b602002602001019060ff16908160ff1681525050600181600981518110612c3857634e487b7160e01b600052603260045260246000fd5b602002602001019060ff16908160ff1681525050600281600a81518110612c6f57634e487b7160e01b600052603260045260246000fd5b602002602001019060ff16908160ff1681525050600481600b81518110612ca657634e487b7160e01b600052603260045260246000fd5b602002602001019060ff16908160ff1681525050600381600c81518110612cdd57634e487b7160e01b600052603260045260246000fd5b602002602001019060ff16908160ff1681525050600181600d81518110612d1457634e487b7160e01b600052603260045260246000fd5b602002602001019060ff16908160ff1681525050600281600e81518110612d4b57634e487b7160e01b600052603260045260246000fd5b602002602001019060ff16908160ff1681525050600381600f81518110612d8257634e487b7160e01b600052603260045260246000fd5b602002602001019060ff16908160ff1681525050612da4600e80546001019055565b6000612daf600e5490565b9050612dbb3382613a33565b6000612dc882848661189c565b9050612dd48282613a4d565b600d54612deb906001600160a01b0316600161215e565b600c546040516308778f5960e41b81526001600160a01b0390911690638778f59090612e2090339086906001906004016157e9565b600060405180830381600087803b158015612e3a57600080fd5b505af1158015612e4e573d6000803e3d6000fd5b505050507f3f1a9864b5687304a31c9a81973dcaab589c026ee94a9f585cbe48323b773298826040516129f391906040808252600890820152677465737447616d6560c01b6060820152602081019190915260800190565b612eb03383613550565b612ecc5760405162461bcd60e51b8152600401610456906159c3565b612ed884848484613a00565b50505050565b606061040b82613bc8565b6000805b8251811015612f4457828181518110612f1657634e487b7160e01b600052603260045260246000fd5b602002602001015160ff1660001415612f325750600192915050565b80612f3c81615c54565b915050612eed565b50600092915050565b6001600160a01b03918216600090815260056020908152604080832093909416825291909152205460ff1690565b60606000612f88336120c8565b90506000816001600160401b03811115612fb257634e487b7160e01b600052604160045260246000fd5b604051908082528060200260200182016040528015612fdb578160200160208202803683370190505b50905060005b8281101561303057612ff33382611806565b82828151811061301357634e487b7160e01b600052603260045260246000fd5b60209081029190910101528061302881615c54565b915050612fe1565b5092915050565b60006001600160e01b0319821663780e9d6360e01b148061040b575061040b82613d37565b600060405160200161306d9061577c565b6040516020818303038152906040528051906020012082604051602001613094919061536d565b6040516020818303038152906040528051906020012014806131095750604051691cdc5d585c9951dc9a5960b21b6020820152602a0160405160208183030381529060405280519060200120826040516020016130f1919061536d565b60405160208183030381529060405280519060200120145b806131615750604051636469636560e01b60208201526024016040516020818303038152906040528051906020012082604051602001613149919061536d565b60405160208183030381529060405280519060200120145b8061040b575060405168686578616772616d7360b81b602082015260290160405160208183030381529060405280519060200120826040516020016131a6919061536d565b604051602081830303815290604052805190602001201492915050565b600081601014806131d45750816040145b8061040b57505060801490565b6060816132055750506040805180820190915260018152600360fc1b602082015290565b8160005b811561322f578061321981615c54565b91506132289050600a83615ba3565b9150613209565b6000816001600160401b0381111561325757634e487b7160e01b600052604160045260246000fd5b6040519080825280601f01601f191660200182016040528015613281576020820181803683370190505b5090505b84156132fa57613296600183615bd6565b91506132a3600a86615c6f565b6132ae906030615b8b565b60f81b8183815181106132d157634e487b7160e01b600052603260045260246000fd5b60200101906001600160f81b031916908160001a9053506132f3600a86615ba3565b9450613285565b949350505050565b60606000826001600160401b0381111561332c57634e487b7160e01b600052604160045260246000fd5b604051908082528060200260200182016040528015613355578160200160208202803683370190505b50905060005b83811015613466576040516001600160601b03193360601b1660208201524360348201526054810182905260009086906074016040516020818303038152906040528051906020012060001c6133b19190615c6f565b905060005b8281101561341c57818482815181106133df57634e487b7160e01b600052603260045260246000fd5b6020026020010151141561340a57866133f9836001615b8b565b6134039190615c6f565b9150600090505b8061341481615c54565b9150506133b6565b50613428816001615b8b565b83838151811061344857634e487b7160e01b600052603260045260246000fd5b6020908102919091010152508061345e81615c54565b91505061335b565b509392505050565b6000908152600260205260409020546001600160a01b0316151590565b600081815260046020526040902080546001600160a01b0319166001600160a01b03841690811790915581906134c082611a4f565b6001600160a01b03167f8c5be1e5ebec7d5bd14f71427d1e84f3dd0314c0f7b2291e5b200ac8c7c3b92560405160405180910390a45050565b6000806002613509846001615b8b565b6135139190615ba3565b9050825b8082101561354957508060028161352e8187615ba3565b6135389190615b8b565b6135429190615ba3565b9150613517565b9392505050565b600061355b8261346e565b6135bc5760405162461bcd60e51b815260206004820152602c60248201527f4552433732313a206f70657261746f7220717565727920666f72206e6f6e657860448201526b34b9ba32b73a103a37b5b2b760a11b6064820152608401610456565b60006135c783611a4f565b9050806001600160a01b0316846001600160a01b031614806135ee57506135ee8185612f4d565b806132fa5750836001600160a01b03166136078461097b565b6001600160a01b031614949350505050565b826001600160a01b031661362c82611a4f565b6001600160a01b0316146136905760405162461bcd60e51b815260206004820152602560248201527f4552433732313a207472616e736665722066726f6d20696e636f72726563742060448201526437bbb732b960d91b6064820152608401610456565b6001600160a01b0382166136f25760405162461bcd60e51b8152602060048201526024808201527f4552433732313a207472616e7366657220746f20746865207a65726f206164646044820152637265737360e01b6064820152608401610456565b6136fd838383613d87565b61370860008261348b565b6001600160a01b0383166000908152600360205260408120805460019290613731908490615bd6565b90915550506001600160a01b038216600090815260036020526040812080546001929061375f908490615b8b565b909155505060008181526002602052604080822080546001600160a01b0319166001600160a01b0386811691821790925591518493918716917fddf252ad1be2c89b69c2b068fc378daa952ba7f163c4a11628f55a4df523b3ef91a4505050565b60608151600014156137e057505060408051602081019091526000815290565b6000604051806060016040528060408152602001615ced604091399050600060038451600261380f9190615b8b565b6138199190615ba3565b613824906004615bb7565b90506000613833826020615b8b565b6001600160401b0381111561385857634e487b7160e01b600052604160045260246000fd5b6040519080825280601f01601f191660200182016040528015613882576020820181803683370190505b509050818152600183018586518101602084015b818310156138f05760039283018051603f601282901c811687015160f890811b8552600c83901c8216880151811b6001860152600683901c8216880151811b60028601529116860151901b93820193909352600401613896565b60038951066001811461390a576002811461391b57613927565b613d3d60f01b600119830152613927565b603d60f81b6000198301525b509398975050505050505050565b816001600160a01b0316836001600160a01b031614156139935760405162461bcd60e51b815260206004820152601960248201527822a9219b99189d1030b8383937bb32903a379031b0b63632b960391b6044820152606401610456565b6001600160a01b03838116600081815260056020908152604080832094871680845294825291829020805460ff191686151590811790915591519182527f17307eab39ab6107e8899845ad3d59bd9653f200f220920489ca2b5937696c31910160405180910390a3505050565b613a0b848484613619565b613a1784848484613d92565b612ed85760405162461bcd60e51b81526004016104569061591a565b612169828260405180602001604052806000815250613e9f565b613a568261346e565b613ab95760405162461bcd60e51b815260206004820152602e60248201527f45524337323155524953746f726167653a2055524920736574206f66206e6f6e60448201526d32bc34b9ba32b73a103a37b5b2b760911b6064820152608401610456565b60008281526006602090815260409091208251610b0f9284019061435a565b6000601082604051613aea919061536d565b90815260405190819003602001902080549091506001600160401b03811115613b2357634e487b7160e01b600052604160045260246000fd5b604051908082528060200260200182016040528015613b4c578160200160208202803683370190505b508051613b609183916020909101906143de565b5080546001600160401b03811115613b8857634e487b7160e01b600052604160045260246000fd5b604051908082528060200260200182016040528015613bb1578160200160208202803683370190505b508051610b0f9160018401916020909101906143de565b6060613bd38261346e565b613c395760405162461bcd60e51b815260206004820152603160248201527f45524337323155524953746f726167653a2055524920717565727920666f72206044820152703737b732bc34b9ba32b73a103a37b5b2b760791b6064820152608401610456565b60008281526006602052604081208054613c5290615c19565b80601f0160208091040260200160405190810160405280929190818152602001828054613c7e90615c19565b8015613ccb5780601f10613ca057610100808354040283529160200191613ccb565b820191906000526020600020905b815481529060010190602001808311613cae57829003601f168201915b505050505090506000613ce960408051602081019091526000815290565b9050805160001415613cfc575092915050565b815115613d2e578082604051602001613d16929190615389565b60405160208183030381529060405292505050919050565b6132fa84613ed2565b60006001600160e01b031982166380ac58cd60e01b1480613d6857506001600160e01b03198216635b5e139f60e01b145b8061040b57506301ffc9a760e01b6001600160e01b031983161461040b565b610b0f838383613fa9565b60006001600160a01b0384163b15613e9457604051630a85bd0160e11b81526001600160a01b0385169063150b7a0290613dd69033908990889088906004016157ac565b602060405180830381600087803b158015613df057600080fd5b505af1925050508015613e20575060408051601f3d908101601f19168201909252613e1d91810190614787565b60015b613e7a573d808015613e4e576040519150601f19603f3d011682016040523d82523d6000602084013e613e53565b606091505b508051613e725760405162461bcd60e51b81526004016104569061591a565b805181602001fd5b6001600160e01b031916630a85bd0160e11b1490506132fa565b506001949350505050565b613ea98383614061565b613eb66000848484613d92565b610b0f5760405162461bcd60e51b81526004016104569061591a565b6060613edd8261346e565b613f415760405162461bcd60e51b815260206004820152602f60248201527f4552433732314d657461646174613a2055524920717565727920666f72206e6f60448201526e3732bc34b9ba32b73a103a37b5b2b760891b6064820152608401610456565b6000613f5860408051602081019091526000815290565b90506000815111613f785760405180602001604052806000815250613549565b80613f82846131e1565b604051602001613f93929190615389565b6040516020818303038152906040529392505050565b6001600160a01b03831661400457613fff81600980546000838152600a60205260408120829055600182018355919091527f6e1540171b6c0c960b71a7020d9f60077f6af931a8bbf590da0223dacf75c7af0155565b614027565b816001600160a01b0316836001600160a01b0316146140275761402783826141a0565b6001600160a01b03821661403e57610b0f8161423d565b826001600160a01b0316826001600160a01b031614610b0f57610b0f8282614316565b6001600160a01b0382166140b75760405162461bcd60e51b815260206004820181905260248201527f4552433732313a206d696e7420746f20746865207a65726f20616464726573736044820152606401610456565b6140c08161346e565b1561410d5760405162461bcd60e51b815260206004820152601c60248201527f4552433732313a20746f6b656e20616c7265616479206d696e746564000000006044820152606401610456565b61411960008383613d87565b6001600160a01b0382166000908152600360205260408120805460019290614142908490615b8b565b909155505060008181526002602052604080822080546001600160a01b0319166001600160a01b03861690811790915590518392907fddf252ad1be2c89b69c2b068fc378daa952ba7f163c4a11628f55a4df523b3ef908290a45050565b600060016141ad846120c8565b6141b79190615bd6565b60008381526008602052604090205490915080821461420a576001600160a01b03841660009081526007602090815260408083208584528252808320548484528184208190558352600890915290208190555b5060009182526008602090815260408084208490556001600160a01b039094168352600781528383209183525290812055565b60095460009061424f90600190615bd6565b6000838152600a60205260408120546009805493945090928490811061428557634e487b7160e01b600052603260045260246000fd5b9060005260206000200154905080600983815481106142b457634e487b7160e01b600052603260045260246000fd5b6000918252602080832090910192909255828152600a909152604080822084905585825281205560098054806142fa57634e487b7160e01b600052603160045260246000fd5b6001900381819060005260206000200160009055905550505050565b6000614321836120c8565b6001600160a01b039093166000908152600760209081526040808320868452825280832085905593825260089052919091209190915550565b82805461436690615c19565b90600052602060002090601f01602090048101928261438857600085556143ce565b82601f106143a157805160ff19168380011785556143ce565b828001600101855582156143ce579182015b828111156143ce5782518255916020019190600101906143b3565b506143da9291506144b9565b5090565b82805482825590600052602060002090601f016020900481019282156143ce5791602002820160005b8382111561444557835183826101000a81548160ff021916908360ff1602179055509260200192600101602081600001049283019260010302614407565b80156144725782816101000a81549060ff0219169055600101602081600001049283019260010302614445565b50506143da9291506144b9565b8280548282559060005260206000209081019282156143ce57916020028201828111156143ce5782518255916020019190600101906143b3565b5b808211156143da57600081556001016144ba565b60006144e16144dc84615b64565b615b11565b90508281528383830111156144f557600080fd5b828260208301376000602084830101529392505050565b80356001600160a01b038116811461452357600080fd5b919050565b600082601f830112614538578081fd5b813560206145486144dc83615b41565b80838252828201915082860187848660051b8901011115614567578586fd5b855b8581101561459357813560ff81168114614581578788fd5b84529284019290840190600101614569565b5090979650505050505050565b600082601f8301126145b0578081fd5b613549838335602085016144ce565b6000602082840312156145d0578081fd5b6135498261450c565b600080604083850312156145eb578081fd5b6145f48361450c565b91506146026020840161450c565b90509250929050565b60008060006060848603121561461f578081fd5b6146288461450c565b92506146366020850161450c565b9150604084013590509250925092565b6000806000806080858703121561465b578182fd5b6146648561450c565b93506146726020860161450c565b92506040850135915060608501356001600160401b03811115614693578182fd5b8501601f810187136146a3578182fd5b6146b2878235602084016144ce565b91505092959194509250565b600080604083850312156146d0578182fd5b6146d98361450c565b915060208301356146e981615cc5565b809150509250929050565b60008060408385031215614706578182fd5b61470f8361450c565b946020939093013593505050565b60006020828403121561472e578081fd5b81356001600160401b03811115614743578182fd5b6132fa84828501614528565b600060208284031215614760578081fd5b815161354981615cc5565b60006020828403121561477c578081fd5b813561354981615cd6565b600060208284031215614798578081fd5b815161354981615cd6565b6000602082840312156147b4578081fd5b81356001600160401b038111156147c9578182fd5b6132fa848285016145a0565b6000602082840312156147e6578081fd5b81516001600160401b038111156147fb578182fd5b8201601f8101841361480b578182fd5b80516148196144dc82615b64565b81815285602083850101111561482d578384fd5b61483e826020830160208601615bed565b95945050505050565b60008060608385031215614859578182fd5b82356001600160401b0381111561486e578283fd5b61487a858286016145a0565b925050602084603f85011261488d578182fd5b614895615ac7565b80828601876060880111156148a8578485fd5b845b60028110156148d857813563ffffffff811681146148c6578687fd5b845292840192908401906001016148aa565b509497909650945050505050565b6000806000606084860312156148fa578081fd5b83356001600160401b0380821115614910578283fd5b61491c878388016145a0565b9450602086013593506040860135915080821115614938578283fd5b50614945868287016145a0565b9150509250925092565b60006020808385031215614961578182fd5b82516001600160401b0380821115614977578384fd5b908401906060828703121561498a578384fd5b614992615aef565b8251815283830151848201526040830151828111156149af578586fd5b80840193505086601f8401126149c3578485fd5b825191506149d36144dc83615b41565b80838252858201915085850189878660051b88010111156149f2578788fd5b8795505b84861015614a145780518352600195909501949186019186016149f6565b506040830152509695505050505050565b600060208284031215614a36578081fd5b5035919050565b600080600060608486031215614a51578081fd5b8335925060208401356001600160401b0380821115614a6e578283fd5b614a7a87838801614528565b93506040860135915080821115614938578283fd5b60008060408385031215614aa1578182fd5b8235915060208301356001600160401b03811115614abd578182fd5b614ac9858286016145a0565b9150509250929050565b600080600060608486031215614ae7578081fd5b83359250602080850135925060408501356001600160401b03811115614b0b578283fd5b8501601f81018713614b1b578283fd5b8035614b296144dc82615b41565b8082825284820191508484018a868560051b8701011115614b48578687fd5b8694505b83851015614b6a578035835260019490940193918501918501614b4c565b5080955050505050509250925092565b6000815180845260208085019450808401835b83811015614ba957815187529582019590820190600101614b8d565b509495945050505050565b6000815480845260208085019450838352808320835b83811015614ba957815487529582019560019182019101614bca565b805480835260008281526020808220940193909190825b82601f82011015614e8457815460ff80821688526020614c26818a01838560081c1660ff169052565b6040614c3b818b01848660101c1660ff169052565b6060614c50818c01858760181c1660ff169052565b6080614c64818d018688871c1660ff169052565b60a09350614c7b848d01868860281c1660ff169052565b60c0614c90818e01878960301c1660ff169052565b60e0614ca5818f01888a60381c1660ff169052565b60ff88861c8816166101008f0152614cc86101208f01888a60481c1660ff169052565b614cdd6101408f01888a60501c1660ff169052565b614cf26101608f01888a60581c1660ff169052565b60ff88851c8816166101808f0152614d156101a08f01888a60681c1660ff169052565b614d2a6101c08f01888a60701c1660ff169052565b614d3f6101e08f01888a60781c1660ff169052565b60ff88841c8816166102008f0152614d626102208f01888a60881c1660ff169052565b614d776102408f01888a60901c1660ff169052565b614d8c6102608f01888a60981c1660ff169052565b60ff88871c8816166102808f0152614daf6102a08f01888a60a81c1660ff169052565b614dc46102c08f01888a60b01c1660ff169052565b614dd96102e08f01888a60b81c1660ff169052565b60ff88831c8816166103008f0152614dfc6103208f01888a60c81c1660ff169052565b614e116103408f01888a60d01c1660ff169052565b614e266103608f01888a60d81c1660ff169052565b60ff88821c8816166103808f0152505050505050614e4f6103a08901828460e81c1660ff169052565b614e646103c08901828460f01c1660ff169052565b5060f81c6103e08701526104009095019460019190910190602001614bfd565b90549082811015614e9f5760ff821686526020909501946001015b82811015614ebb5760ff600883901c1686526020909501946001015b82811015614ed75760ff601083901c1686526020909501946001015b82811015614ef35760ff601883901c1686526020909501946001015b82811015614f1057602082901c60ff168652602095909501946001015b82811015614f2c5760ff602883901c1686526020909501946001015b82811015614f485760ff603083901c1686526020909501946001015b82811015614f645760ff603883901c1686526020909501946001015b82811015614f805760ff604083901c1686526020909501946001015b82811015614f9c5760ff604883901c1686526020909501946001015b82811015614fb85760ff605083901c1686526020909501946001015b82811015614fd45760ff605883901c1686526020909501946001015b82811015614ff05760ff606083901c1686526020909501946001015b8281101561500c5760ff606883901c1686526020909501946001015b828110156150285760ff607083901c1686526020909501946001015b828110156150445760ff607883901c1686526020909501946001015b828110156150605760ff608083901c1686526020909501946001015b8281101561507c5760ff608883901c1686526020909501946001015b828110156150985760ff609083901c1686526020909501946001015b828110156150b45760ff609883901c1686526020909501946001015b828110156150d05760ff60a083901c1686526020909501946001015b828110156150ec5760ff60a883901c1686526020909501946001015b828110156151085760ff60b083901c1686526020909501946001015b828110156151245760ff60b883901c1686526020909501946001015b828110156151405760ff60c083901c1686526020909501946001015b8281101561515c5760ff60c883901c1686526020909501946001015b828110156151785760ff60d083901c1686526020909501946001015b828110156151945760ff60d883901c1686526020909501946001015b828110156151b05760ff60e083901c1686526020909501946001015b828110156151cc5760ff60e883901c1686526020909501946001015b828110156151e85760ff60f083901c1686526020909501946001015b828110156151fe5760f882901c86526020860195505b5093949350505050565b60008151808452615220816020860160208601615bed565b601f01601f19169290920160200192915050565b60008151615246818560208601615bed565b9290920192915050565b6000815461525d81615c19565b80855260206001838116801561527a576001811461528e576152bc565b60ff198516888401526040880195506152bc565b866000528260002060005b858110156152b45781548a8201860152908301908401615299565b890184019650505b505050505092915050565b60e0825260006152da60e0840183614be6565b83810360208501526152ef8160018501614be6565b905083810360408501526153068160028501615250565b9050838103606085015261531d8160038501615250565b905061533360048401546001600160a01b031690565b6001600160a01b0316608085015283810360a08501526153568160058501615250565b905083810360c08501526132fa8160068501614bb4565b6000825161537f818460208701615bed565b9190910192915050565b6000835161539b818460208801615bed565b8351908301906153af818360208801615bed565b01949350505050565b60008083546153c681615c19565b600182811680156153de57600181146153ef5761541b565b60ff1984168752828701945061541b565b8786526020808720875b858110156154125781548a8201529084019082016153f9565b50505082870194505b50929695505050505050565b7f7b226e616d65223a2022466c697070616e646f202d205468652047616d65200081526000865161545f81601f850160208b01615bed565b7f222c226465736372697074696f6e223a20224120466c697070616e646f206761601f918401918201527f6d6520706c61796564206f6e2074686520626c6f636b636861696e2e222c2267603f8201527f616d655f76657273696f6e223a2022302e312e30202f20426c7565204f636561605f8201526e3711161133b0b6b2afb4b2111d101160891b607f820152865161550081608e840160208b01615bed565b6f11161133b0b6b2afba3cb832911d101160811b608e9290910191820152855161553181609e840160208a01615bed565b7011161133b0b6b2afb632bb32b6111d101160791b609e92909101918201526155b26155a461559e61556660af850189615234565b7f222c22696d616765223a2022646174613a696d6167652f7376672b786d6c3b62815265185cd94d8d0b60d21b602082015260260190565b86615234565b61227d60f01b815260020190565b98975050505050505050565b607b60f81b81527f226e616d65223a2022466c697070616e646f202d205468652047616d6520000060018201526000835161560081601f850160208801615bed565b61088b60f21b601f918401918201527f226465736372697074696f6e223a20224120466c697070616e646f2067616d6560218201527f20706c61796564206f6e2074686520626c6f636b636861696e2e222c0000000060418201527f2267616d655f76657273696f6e223a2022302e312e30202f20426c7565204f63605d8201526419585b888b60da1b607d820152750899d85b5957da59088e88089d195cdd11d85b59488b60521b6082820152790899d85b5957dd1e5c19488e88089cdc5d585c9951dc9a59088b60321b609882015261483e61572a61571d61571760b285017f22696d616765223a2022646174613a696d6167652f7376672b786d6c3b626173815263194d8d0b60e21b602082015260240190565b87615234565b601160f91b815260010190565b607d60f81b815260010190565b7f646174613a6170706c69636174696f6e2f6a736f6e3b6261736536342c00000081526000825161576f81601d850160208701615bed565b91909101601d0192915050565b681cdc1bdb9cdbdc995960ba1b815260090190565b91825260601b6001600160601b031916602082015260340190565b6001600160a01b03858116825284166020820152604081018390526080606082018190526000906157df90830184615208565b9695505050505050565b6001600160a01b039390931683526020830191909152604082015260600190565b6020815260006135496020830184614b7a565b604080825283519082018190526000906020906060840190828701845b8281101561585957815160ff168452928401929084019060010161583a565b505050838103828501526157df8186615208565b6020815260006135496020830184615208565b6080815260006158936080830187615208565b82810360208401526158a58187615208565b6001600160a01b0386166040850152838103606085015290506158c88185615208565b979650505050505050565b6040815260006158e66040830185615208565b828103602084015261483e81856152c7565b60408152600061590b6040830185615208565b90508260208301529392505050565b60208082526032908201527f4552433732313a207472616e7366657220746f206e6f6e20455243373231526560408201527131b2b4bb32b91034b6b83632b6b2b73a32b960711b606082015260800190565b60208082526037908201527f596f752063616e206e6f7420666c697020612074696c65206174207468617420604082015276706f736974696f6e2c206f7574206f6620626f756e647360481b606082015260800190565b60208082526031908201527f4552433732313a207472616e736665722063616c6c6572206973206e6f74206f6040820152701ddb995c881b9bdc88185c1c1c9bdd9959607a1b606082015260800190565b602081528151602082015260208201516040820152600060408301516060808401526132fa6080840182614b7a565b606081526000615a5660608301856152c7565b905060208083018460005b6002811015615a8457815163ffffffff1683529183019190830190600101615a61565b505050509392505050565b848152836020820152608060408201526000615aae6080830185614b7a565b905060018060a01b038316606083015295945050505050565b604080519081016001600160401b0381118282101715615ae957615ae9615caf565b60405290565b604051606081016001600160401b0381118282101715615ae957615ae9615caf565b604051601f8201601f191681016001600160401b0381118282101715615b3957615b39615caf565b604052919050565b60006001600160401b03821115615b5a57615b5a615caf565b5060051b60200190565b60006001600160401b03821115615b7d57615b7d615caf565b50601f01601f191660200190565b60008219821115615b9e57615b9e615c83565b500190565b600082615bb257615bb2615c99565b500490565b6000816000190483118215151615615bd157615bd1615c83565b500290565b600082821015615be857615be8615c83565b500390565b60005b83811015615c08578181015183820152602001615bf0565b83811115612ed85750506000910152565b600181811c90821680615c2d57607f821691505b60208210811415615c4e57634e487b7160e01b600052602260045260246000fd5b50919050565b6000600019821415615c6857615c68615c83565b5060010190565b600082615c7e57615c7e615c99565b500690565b634e487b7160e01b600052601160045260246000fd5b634e487b7160e01b600052601260045260246000fd5b634e487b7160e01b600052604160045260246000fd5b8015158114615cd357600080fd5b50565b6001600160e01b031981168114615cd357600080fdfe4142434445464748494a4b4c4d4e4f505152535455565758595a6162636465666768696a6b6c6d6e6f707172737475767778797a303132333435363738392b2fa26469706673582212206a8f3cadc171c9754130b2836b4398508f1f1f708c7bd16d06b123b2064c23a364736f6c63430008040033",
  "linkReferences": {},
  "deployedLinkReferences": {}
}