{
  "_format": "hh-sol-artifact-1",
  "contractName": "FlippandoBundler",
  "sourceName": "contracts/FlippandoBundler.sol",
  "abi": [
    {
      "inputs": [],
      "stateMutability": "nonpayable",
      "type": "constructor"
    },
    {
      "anonymous": false,
      "inputs": [
        {
          "indexed": true,
          "internalType": "address",
          "name": "owner",
          "type": "address"
        },
        {
          "indexed": true,
          "internalType": "address",
          "name": "approved",
          "type": "address"
        },
        {
          "indexed": true,
          "internalType": "uint256",
          "name": "tokenId",
          "type": "uint256"
        }
      ],
      "name": "Approval",
      "type": "event"
    },
    {
      "anonymous": false,
      "inputs": [
        {
          "indexed": true,
          "internalType": "address",
          "name": "owner",
          "type": "address"
        },
        {
          "indexed": true,
          "internalType": "address",
          "name": "operator",
          "type": "address"
        },
        {
          "indexed": false,
          "internalType": "bool",
          "name": "approved",
          "type": "bool"
        }
      ],
      "name": "ApprovalForAll",
      "type": "event"
    },
    {
      "anonymous": false,
      "inputs": [
        {
          "indexed": false,
          "internalType": "uint256[]",
          "name": "tokenIds",
          "type": "uint256[]"
        },
        {
          "indexed": false,
          "internalType": "uint256",
          "name": "boardWidth",
          "type": "uint256"
        },
        {
          "indexed": false,
          "internalType": "uint256",
          "name": "boardHeight",
          "type": "uint256"
        }
      ],
      "name": "BundleAssets",
      "type": "event"
    },
    {
      "anonymous": false,
      "inputs": [
        {
          "indexed": true,
          "internalType": "address",
          "name": "from",
          "type": "address"
        },
        {
          "indexed": true,
          "internalType": "address",
          "name": "to",
          "type": "address"
        },
        {
          "indexed": true,
          "internalType": "uint256",
          "name": "tokenId",
          "type": "uint256"
        }
      ],
      "name": "Transfer",
      "type": "event"
    },
    {
      "inputs": [
        {
          "internalType": "address",
          "name": "to",
          "type": "address"
        },
        {
          "internalType": "uint256",
          "name": "tokenId",
          "type": "uint256"
        }
      ],
      "name": "approve",
      "outputs": [],
      "stateMutability": "nonpayable",
      "type": "function"
    },
    {
      "inputs": [
        {
          "internalType": "uint256",
          "name": "",
          "type": "uint256"
        }
      ],
      "name": "artworks",
      "outputs": [
        {
          "internalType": "uint256",
          "name": "boardWidth",
          "type": "uint256"
        },
        {
          "internalType": "uint256",
          "name": "boardHeight",
          "type": "uint256"
        }
      ],
      "stateMutability": "view",
      "type": "function"
    },
    {
      "inputs": [
        {
          "internalType": "address",
          "name": "owner",
          "type": "address"
        }
      ],
      "name": "balanceOf",
      "outputs": [
        {
          "internalType": "uint256",
          "name": "",
          "type": "uint256"
        }
      ],
      "stateMutability": "view",
      "type": "function"
    },
    {
      "inputs": [
        {
          "internalType": "uint256",
          "name": "boardWidth",
          "type": "uint256"
        },
        {
          "internalType": "uint256",
          "name": "boardHeight",
          "type": "uint256"
        },
        {
          "internalType": "uint256[]",
          "name": "tokenIds",
          "type": "uint256[]"
        },
        {
          "internalType": "address",
          "name": "newOwner",
          "type": "address"
        }
      ],
      "name": "bundleAssets",
      "outputs": [
        {
          "components": [
            {
              "internalType": "uint256",
              "name": "boardWidth",
              "type": "uint256"
            },
            {
              "internalType": "uint256",
              "name": "boardHeight",
              "type": "uint256"
            },
            {
              "internalType": "uint256[]",
              "name": "buildingBlocks",
              "type": "uint256[]"
            }
          ],
          "internalType": "struct FlippandoBundler.Artwork",
          "name": "",
          "type": "tuple"
        }
      ],
      "stateMutability": "nonpayable",
      "type": "function"
    },
    {
      "inputs": [
        {
          "internalType": "address",
          "name": "newOwner",
          "type": "address"
        }
      ],
      "name": "changeOwner",
      "outputs": [],
      "stateMutability": "nonpayable",
      "type": "function"
    },
    {
      "inputs": [
        {
          "internalType": "uint256",
          "name": "tokenId",
          "type": "uint256"
        }
      ],
      "name": "getApproved",
      "outputs": [
        {
          "internalType": "address",
          "name": "",
          "type": "address"
        }
      ],
      "stateMutability": "view",
      "type": "function"
    },
    {
      "inputs": [
        {
          "internalType": "uint256",
          "name": "tokenId",
          "type": "uint256"
        }
      ],
      "name": "getArtwork",
      "outputs": [
        {
          "components": [
            {
              "internalType": "uint256",
              "name": "boardWidth",
              "type": "uint256"
            },
            {
              "internalType": "uint256",
              "name": "boardHeight",
              "type": "uint256"
            },
            {
              "internalType": "uint256[]",
              "name": "buildingBlocks",
              "type": "uint256[]"
            }
          ],
          "internalType": "struct FlippandoBundler.Artwork",
          "name": "",
          "type": "tuple"
        }
      ],
      "stateMutability": "view",
      "type": "function"
    },
    {
      "inputs": [
        {
          "internalType": "address",
          "name": "owner",
          "type": "address"
        },
        {
          "internalType": "address",
          "name": "operator",
          "type": "address"
        }
      ],
      "name": "isApprovedForAll",
      "outputs": [
        {
          "internalType": "bool",
          "name": "",
          "type": "bool"
        }
      ],
      "stateMutability": "view",
      "type": "function"
    },
    {
      "inputs": [
        {
          "internalType": "uint256",
          "name": "tokenId",
          "type": "uint256"
        }
      ],
      "name": "isPartOfArtwork",
      "outputs": [
        {
          "internalType": "bool",
          "name": "",
          "type": "bool"
        }
      ],
      "stateMutability": "view",
      "type": "function"
    },
    {
      "inputs": [],
      "name": "name",
      "outputs": [
        {
          "internalType": "string",
          "name": "",
          "type": "string"
        }
      ],
      "stateMutability": "view",
      "type": "function"
    },
    {
      "inputs": [],
      "name": "nextTokenId",
      "outputs": [
        {
          "internalType": "uint256",
          "name": "",
          "type": "uint256"
        }
      ],
      "stateMutability": "view",
      "type": "function"
    },
    {
      "inputs": [],
      "name": "owner",
      "outputs": [
        {
          "internalType": "address",
          "name": "",
          "type": "address"
        }
      ],
      "stateMutability": "view",
      "type": "function"
    },
    {
      "inputs": [
        {
          "internalType": "uint256",
          "name": "tokenId",
          "type": "uint256"
        }
      ],
      "name": "ownerOf",
      "outputs": [
        {
          "internalType": "address",
          "name": "",
          "type": "address"
        }
      ],
      "stateMutability": "view",
      "type": "function"
    },
    {
      "inputs": [
        {
          "internalType": "address",
          "name": "from",
          "type": "address"
        },
        {
          "internalType": "address",
          "name": "to",
          "type": "address"
        },
        {
          "internalType": "uint256",
          "name": "tokenId",
          "type": "uint256"
        }
      ],
      "name": "safeTransferFrom",
      "outputs": [],
      "stateMutability": "nonpayable",
      "type": "function"
    },
    {
      "inputs": [
        {
          "internalType": "address",
          "name": "from",
          "type": "address"
        },
        {
          "internalType": "address",
          "name": "to",
          "type": "address"
        },
        {
          "internalType": "uint256",
          "name": "tokenId",
          "type": "uint256"
        },
        {
          "internalType": "bytes",
          "name": "_data",
          "type": "bytes"
        }
      ],
      "name": "safeTransferFrom",
      "outputs": [],
      "stateMutability": "nonpayable",
      "type": "function"
    },
    {
      "inputs": [
        {
          "internalType": "address",
          "name": "operator",
          "type": "address"
        },
        {
          "internalType": "bool",
          "name": "approved",
          "type": "bool"
        }
      ],
      "name": "setApprovalForAll",
      "outputs": [],
      "stateMutability": "nonpayable",
      "type": "function"
    },
    {
      "inputs": [
        {
          "internalType": "bytes4",
          "name": "interfaceId",
          "type": "bytes4"
        }
      ],
      "name": "supportsInterface",
      "outputs": [
        {
          "internalType": "bool",
          "name": "",
          "type": "bool"
        }
      ],
      "stateMutability": "view",
      "type": "function"
    },
    {
      "inputs": [],
      "name": "symbol",
      "outputs": [
        {
          "internalType": "string",
          "name": "",
          "type": "string"
        }
      ],
      "stateMutability": "view",
      "type": "function"
    },
    {
      "inputs": [
        {
          "internalType": "uint256",
          "name": "index",
          "type": "uint256"
        }
      ],
      "name": "tokenByIndex",
      "outputs": [
        {
          "internalType": "uint256",
          "name": "",
          "type": "uint256"
        }
      ],
      "stateMutability": "view",
      "type": "function"
    },
    {
      "inputs": [
        {
          "internalType": "address",
          "name": "owner",
          "type": "address"
        },
        {
          "internalType": "uint256",
          "name": "index",
          "type": "uint256"
        }
      ],
      "name": "tokenOfOwnerByIndex",
      "outputs": [
        {
          "internalType": "uint256",
          "name": "",
          "type": "uint256"
        }
      ],
      "stateMutability": "view",
      "type": "function"
    },
    {
      "inputs": [
        {
          "internalType": "uint256",
          "name": "tokenId",
          "type": "uint256"
        }
      ],
      "name": "tokenURI",
      "outputs": [
        {
          "internalType": "string",
          "name": "",
          "type": "string"
        }
      ],
      "stateMutability": "view",
      "type": "function"
    },
    {
      "inputs": [],
      "name": "totalSupply",
      "outputs": [
        {
          "internalType": "uint256",
          "name": "",
          "type": "uint256"
        }
      ],
      "stateMutability": "view",
      "type": "function"
    },
    {
      "inputs": [
        {
          "internalType": "address",
          "name": "from",
          "type": "address"
        },
        {
          "internalType": "address",
          "name": "to",
          "type": "address"
        },
        {
          "internalType": "uint256",
          "name": "tokenId",
          "type": "uint256"
        }
      ],
      "name": "transferFrom",
      "outputs": [],
      "stateMutability": "nonpayable",
      "type": "function"
    }
  ],
  "bytecode": "0x60806040526000600c553480156200001657600080fd5b506040805180820182526011815270233634b83830b7323790213ab7323632b960791b6020808301918252835180850190945260048452631190939160e21b9084015281519192916200006c916000916200009d565b508051620000829060019060208401906200009d565b5050600d80546001600160a01b031916331790555062000180565b828054620000ab9062000143565b90600052602060002090601f016020900481019282620000cf57600085556200011a565b82601f10620000ea57805160ff19168380011785556200011a565b828001600101855582156200011a579182015b828111156200011a578251825591602001919060010190620000fd565b50620001289291506200012c565b5090565b5b808211156200012857600081556001016200012d565b600181811c908216806200015857607f821691505b602082108114156200017a57634e487b7160e01b600052602260045260246000fd5b50919050565b61222180620001906000396000f3fe608060405234801561001057600080fd5b506004361061012d5760003560e01c80634f6ccce7116100b35780634f6ccce7146102695780636352211e1461027c57806370a082311461028f57806375794a3c146102a25780638da5cb5b146102ab57806395d89b41146102be578063a22cb465146102c6578063a6f9dae1146102d9578063b88d4fde146102ec578063c87b56dd146102ff578063d531400214610312578063e985e9c51461032557600080fd5b806301ffc9a71461013257806306fdde031461015a578063081812fc1461016f578063095ea7b31461019a578063167ddf6e146101af57806318160ddd146101cf57806323b872dd146101e15780632f745c59146101f457806342842e0e146102075780634af701a31461021a5780634b6026731461022d575b600080fd5b610145610140366004611c03565b610338565b60405190151581526020015b60405180910390f35b610162610349565b6040516101519190611e11565b61018261017d366004611c3b565b6103db565b6040516001600160a01b039091168152602001610151565b6101ad6101a8366004611bda565b610468565b005b6101c26101bd366004611c3b565b610579565b6040516101519190611f15565b6009545b604051908152602001610151565b6101ad6101ef366004611a90565b610603565b6101d3610202366004611bda565b610634565b6101ad610215366004611a90565b6106ca565b6101c2610228366004611c53565b6106e5565b61025461023b366004611c3b565b600b602052600090815260409020805460019091015482565b60408051928352602083019190915201610151565b6101d3610277366004611c3b565b6108d9565b61018261028a366004611c3b565b61097a565b6101d361029d366004611a44565b6109f1565b6101d3600c5481565b600d54610182906001600160a01b031681565b610162610a78565b6101ad6102d4366004611ba0565b610a87565b6101ad6102e7366004611a44565b610a96565b6101ad6102fa366004611acb565b610ae2565b61016261030d366004611c3b565b610b1a565b610145610320366004611c3b565b610b25565b610145610333366004611a5e565b610be2565b600061034382610c10565b92915050565b60606000805461035890612008565b80601f016020809104026020016040519081016040528092919081815260200182805461038490612008565b80156103d15780601f106103a6576101008083540402835291602001916103d1565b820191906000526020600020905b8154815290600101906020018083116103b457829003601f168201915b5050505050905090565b60006103e682610c35565b61044c5760405162461bcd60e51b815260206004820152602c60248201527f4552433732313a20617070726f76656420717565727920666f72206e6f6e657860448201526b34b9ba32b73a103a37b5b2b760a11b60648201526084015b60405180910390fd5b506000908152600460205260409020546001600160a01b031690565b60006104738261097a565b9050806001600160a01b0316836001600160a01b031614156104e15760405162461bcd60e51b815260206004820152602160248201527f4552433732313a20617070726f76616c20746f2063757272656e74206f776e656044820152603960f91b6064820152608401610443565b336001600160a01b03821614806104fd57506104fd8133610be2565b61056a5760405162461bcd60e51b815260206004820152603860248201527f4552433732313a20617070726f76652063616c6c6572206973206e6f74206f776044820152771b995c881b9bdc88185c1c1c9bdd995908199bdc88185b1b60421b6064820152608401610443565b6105748383610c52565b505050565b610581611934565b6000828152600b6020908152604091829020825160608101845281548152600182015481840152600282018054855181860281018601875281815292959394938601938301828280156105f357602002820191906000526020600020905b8154815260200190600101908083116105df575b5050505050815250509050919050565b61060d3382610cc0565b6106295760405162461bcd60e51b815260040161044390611ec4565b610574838383610d8a565b600061063f836109f1565b82106106a15760405162461bcd60e51b815260206004820152602b60248201527f455243373231456e756d657261626c653a206f776e657220696e646578206f7560448201526a74206f6620626f756e647360a81b6064820152608401610443565b506001600160a01b03919091166000908152600760209081526040808320938352929052205490565b61057483838360405180602001604052806000815250610ae2565b6106ed611934565b600d546001600160a01b031633146107175760405162461bcd60e51b815260040161044390611e76565b6107218587611fa6565b83146107845760405162461bcd60e51b815260206004820152602c60248201527f4e756d626572206f6620746f6b656e496473206d757374206d6174636820746860448201526b6520626f6172642073697a6560a01b6064820152608401610443565b7f9e0110a393dec2d883df91b1534e17e88e6b5e2441713fb4f92482c6b64e3865848488886040516107b99493929190611d80565b60405180910390a16107c9611934565b848480806020026020016040519081016040528093929190818152602001838360200280828437600092019190915250505050604080830182905260208301889052888352517f9e0110a393dec2d883df91b1534e17e88e6b5e2441713fb4f92482c6b64e38659161083e918a908a90611dc4565b60405180910390a1600c546000908152600b602090815260409182902083518155818401516001820155918301518051849392610882926002850192910190611955565b5090505061089283600c54610f31565b6108b9600c5460405180610140016040528061011e81526020016120ce61011e9139611070565b600c80549060006108c983612043565b9091555090979650505050505050565b60006108e460095490565b82106109475760405162461bcd60e51b815260206004820152602c60248201527f455243373231456e756d657261626c653a20676c6f62616c20696e646578206f60448201526b7574206f6620626f756e647360a01b6064820152608401610443565b6009828154811061096857634e487b7160e01b600052603260045260246000fd5b90600052602060002001549050919050565b6000818152600260205260408120546001600160a01b0316806103435760405162461bcd60e51b815260206004820152602960248201527f4552433732313a206f776e657220717565727920666f72206e6f6e657869737460448201526832b73a103a37b5b2b760b91b6064820152608401610443565b60006001600160a01b038216610a5c5760405162461bcd60e51b815260206004820152602a60248201527f4552433732313a2062616c616e636520717565727920666f7220746865207a65604482015269726f206164647265737360b01b6064820152608401610443565b506001600160a01b031660009081526003602052604090205490565b60606001805461035890612008565b610a923383836110fb565b5050565b600d546001600160a01b03163314610ac05760405162461bcd60e51b815260040161044390611e76565b600d80546001600160a01b0319166001600160a01b0392909216919091179055565b610aec3383610cc0565b610b085760405162461bcd60e51b815260040161044390611ec4565b610b14848484846111c6565b50505050565b6060610343826111f9565b6000806000600c5411610b39576000610b48565b6001600c54610b489190611fc5565b905060005b818111610bd8576000818152600b60205260408120905b6002820154811015610bc35785826002018281548110610b9457634e487b7160e01b600052603260045260246000fd5b90600052602060002001541415610bb15750600195945050505050565b80610bbb81612043565b915050610b64565b50508080610bd090612043565b915050610b4d565b5060009392505050565b6001600160a01b03918216600090815260056020908152604080832093909416825291909152205460ff1690565b60006001600160e01b0319821663780e9d6360e01b1480610343575061034382611368565b6000908152600260205260409020546001600160a01b0316151590565b600081815260046020526040902080546001600160a01b0319166001600160a01b0384169081179091558190610c878261097a565b6001600160a01b03167f8c5be1e5ebec7d5bd14f71427d1e84f3dd0314c0f7b2291e5b200ac8c7c3b92560405160405180910390a45050565b6000610ccb82610c35565b610d2c5760405162461bcd60e51b815260206004820152602c60248201527f4552433732313a206f70657261746f7220717565727920666f72206e6f6e657860448201526b34b9ba32b73a103a37b5b2b760a11b6064820152608401610443565b6000610d378361097a565b9050806001600160a01b0316846001600160a01b03161480610d5e5750610d5e8185610be2565b80610d825750836001600160a01b0316610d77846103db565b6001600160a01b0316145b949350505050565b826001600160a01b0316610d9d8261097a565b6001600160a01b031614610e015760405162461bcd60e51b815260206004820152602560248201527f4552433732313a207472616e736665722066726f6d20696e636f72726563742060448201526437bbb732b960d91b6064820152608401610443565b6001600160a01b038216610e635760405162461bcd60e51b8152602060048201526024808201527f4552433732313a207472616e7366657220746f20746865207a65726f206164646044820152637265737360e01b6064820152608401610443565b610e6e8383836113b8565b610e79600082610c52565b6001600160a01b0383166000908152600360205260408120805460019290610ea2908490611fc5565b90915550506001600160a01b0382166000908152600360205260408120805460019290610ed0908490611f7a565b909155505060008181526002602052604080822080546001600160a01b0319166001600160a01b0386811691821790925591518493918716917fddf252ad1be2c89b69c2b068fc378daa952ba7f163c4a11628f55a4df523b3ef91a4505050565b6001600160a01b038216610f875760405162461bcd60e51b815260206004820181905260248201527f4552433732313a206d696e7420746f20746865207a65726f20616464726573736044820152606401610443565b610f9081610c35565b15610fdd5760405162461bcd60e51b815260206004820152601c60248201527f4552433732313a20746f6b656e20616c7265616479206d696e746564000000006044820152606401610443565b610fe9600083836113b8565b6001600160a01b0382166000908152600360205260408120805460019290611012908490611f7a565b909155505060008181526002602052604080822080546001600160a01b0319166001600160a01b03861690811790915590518392907fddf252ad1be2c89b69c2b068fc378daa952ba7f163c4a11628f55a4df523b3ef908290a45050565b61107982610c35565b6110dc5760405162461bcd60e51b815260206004820152602e60248201527f45524337323155524953746f726167653a2055524920736574206f66206e6f6e60448201526d32bc34b9ba32b73a103a37b5b2b760911b6064820152608401610443565b60008281526006602090815260409091208251610574928401906119a0565b816001600160a01b0316836001600160a01b031614156111595760405162461bcd60e51b815260206004820152601960248201527822a9219b99189d1030b8383937bb32903a379031b0b63632b960391b6044820152606401610443565b6001600160a01b03838116600081815260056020908152604080832094871680845294825291829020805460ff191686151590811790915591519182527f17307eab39ab6107e8899845ad3d59bd9653f200f220920489ca2b5937696c31910160405180910390a3505050565b6111d1848484610d8a565b6111dd848484846113c3565b610b145760405162461bcd60e51b815260040161044390611e24565b606061120482610c35565b61126a5760405162461bcd60e51b815260206004820152603160248201527f45524337323155524953746f726167653a2055524920717565727920666f72206044820152703737b732bc34b9ba32b73a103a37b5b2b760791b6064820152608401610443565b6000828152600660205260408120805461128390612008565b80601f01602080910402602001604051908101604052809291908181526020018280546112af90612008565b80156112fc5780601f106112d1576101008083540402835291602001916112fc565b820191906000526020600020905b8154815290600101906020018083116112df57829003601f168201915b50505050509050600061131a60408051602081019091526000815290565b905080516000141561132d575092915050565b81511561135f578082604051602001611347929190611d14565b60405160208183030381529060405292505050919050565b610d82846114d0565b60006001600160e01b031982166380ac58cd60e01b148061139957506001600160e01b03198216635b5e139f60e01b145b8061034357506301ffc9a760e01b6001600160e01b0319831614610343565b6105748383836115a8565b60006001600160a01b0384163b156114c557604051630a85bd0160e11b81526001600160a01b0385169063150b7a0290611407903390899088908890600401611d43565b602060405180830381600087803b15801561142157600080fd5b505af1925050508015611451575060408051601f3d908101601f1916820190925261144e91810190611c1f565b60015b6114ab573d80801561147f576040519150601f19603f3d011682016040523d82523d6000602084013e611484565b606091505b5080516114a35760405162461bcd60e51b815260040161044390611e24565b805181602001fd5b6001600160e01b031916630a85bd0160e11b149050610d82565b506001949350505050565b60606114db82610c35565b61153f5760405162461bcd60e51b815260206004820152602f60248201527f4552433732314d657461646174613a2055524920717565727920666f72206e6f60448201526e3732bc34b9ba32b73a103a37b5b2b760891b6064820152608401610443565b600061155660408051602081019091526000815290565b9050600081511161157657604051806020016040528060008152506115a1565b8061158084611660565b604051602001611591929190611d14565b6040516020818303038152906040525b9392505050565b6001600160a01b038316611603576115fe81600980546000838152600a60205260408120829055600182018355919091527f6e1540171b6c0c960b71a7020d9f60077f6af931a8bbf590da0223dacf75c7af0155565b611626565b816001600160a01b0316836001600160a01b03161461162657611626838261177a565b6001600160a01b03821661163d5761057481611817565b826001600160a01b0316826001600160a01b0316146105745761057482826118f0565b6060816116845750506040805180820190915260018152600360fc1b602082015290565b8160005b81156116ae578061169881612043565b91506116a79050600a83611f92565b9150611688565b60008167ffffffffffffffff8111156116d757634e487b7160e01b600052604160045260246000fd5b6040519080825280601f01601f191660200182016040528015611701576020820181803683370190505b5090505b8415610d8257611716600183611fc5565b9150611723600a8661205e565b61172e906030611f7a565b60f81b81838151811061175157634e487b7160e01b600052603260045260246000fd5b60200101906001600160f81b031916908160001a905350611773600a86611f92565b9450611705565b60006001611787846109f1565b6117919190611fc5565b6000838152600860205260409020549091508082146117e4576001600160a01b03841660009081526007602090815260408083208584528252808320548484528184208190558352600890915290208190555b5060009182526008602090815260408084208490556001600160a01b039094168352600781528383209183525290812055565b60095460009061182990600190611fc5565b6000838152600a60205260408120546009805493945090928490811061185f57634e487b7160e01b600052603260045260246000fd5b90600052602060002001549050806009838154811061188e57634e487b7160e01b600052603260045260246000fd5b6000918252602080832090910192909255828152600a909152604080822084905585825281205560098054806118d457634e487b7160e01b600052603160045260246000fd5b6001900381819060005260206000200160009055905550505050565b60006118fb836109f1565b6001600160a01b039093166000908152600760209081526040808320868452825280832085905593825260089052919091209190915550565b60405180606001604052806000815260200160008152602001606081525090565b828054828255906000526020600020908101928215611990579160200282015b82811115611990578251825591602001919060010190611975565b5061199c929150611a13565b5090565b8280546119ac90612008565b90600052602060002090601f0160209004810192826119ce5760008555611990565b82601f106119e757805160ff1916838001178555611990565b828001600101855582156119905791820182811115611990578251825591602001919060010190611975565b5b8082111561199c5760008155600101611a14565b80356001600160a01b0381168114611a3f57600080fd5b919050565b600060208284031215611a55578081fd5b6115a182611a28565b60008060408385031215611a70578081fd5b611a7983611a28565b9150611a8760208401611a28565b90509250929050565b600080600060608486031215611aa4578081fd5b611aad84611a28565b9250611abb60208501611a28565b9150604084013590509250925092565b60008060008060808587031215611ae0578081fd5b611ae985611a28565b9350611af760208601611a28565b925060408501359150606085013567ffffffffffffffff80821115611b1a578283fd5b818701915087601f830112611b2d578283fd5b813581811115611b3f57611b3f61209e565b604051601f8201601f19908116603f01168101908382118183101715611b6757611b6761209e565b816040528281528a6020848701011115611b7f578586fd5b82602086016020830137918201602001949094529598949750929550505050565b60008060408385031215611bb2578182fd5b611bbb83611a28565b915060208301358015158114611bcf578182fd5b809150509250929050565b60008060408385031215611bec578182fd5b611bf583611a28565b946020939093013593505050565b600060208284031215611c14578081fd5b81356115a1816120b4565b600060208284031215611c30578081fd5b81516115a1816120b4565b600060208284031215611c4c578081fd5b5035919050565b600080600080600060808688031215611c6a578081fd5b8535945060208601359350604086013567ffffffffffffffff80821115611c8f578283fd5b818801915088601f830112611ca2578283fd5b813581811115611cb0578384fd5b8960208260051b8501011115611cc4578384fd5b602083019550809450505050611cdc60608701611a28565b90509295509295909350565b60008151808452611d00816020860160208601611fdc565b601f01601f19169290920160200192915050565b60008351611d26818460208801611fdc565b835190830190611d3a818360208801611fdc565b01949350505050565b6001600160a01b0385811682528416602082015260408101839052608060608201819052600090611d7690830184611ce8565b9695505050505050565b6060808252810184905260006001600160fb1b03851115611d9f578081fd5b8460051b80876080850137820160800190815260208201939093526040015292915050565b606080825284519082018190526000906020906080840190828801845b82811015611dfd57815184529284019290840190600101611de1565b505050908301949094525060400152919050565b6020815260006115a16020830184611ce8565b60208082526032908201527f4552433732313a207472616e7366657220746f206e6f6e20455243373231526560408201527131b2b4bb32b91034b6b83632b6b2b73a32b960711b606082015260800190565b6020808252602e908201527f4f6e6c792074686520636f6e7472616374206f776e65722063616e2063616c6c60408201526d103a3434b990333ab731ba34b7b760911b606082015260800190565b60208082526031908201527f4552433732313a207472616e736665722063616c6c6572206973206e6f74206f6040820152701ddb995c881b9bdc88185c1c1c9bdd9959607a1b606082015260800190565b6000602080835260808301845182850152818501516040850152604085015160608086015281815180845260a08701915084830193508592505b80831015611f6f5783518252928401926001929092019190840190611f4f565b509695505050505050565b60008219821115611f8d57611f8d612072565b500190565b600082611fa157611fa1612088565b500490565b6000816000190483118215151615611fc057611fc0612072565b500290565b600082821015611fd757611fd7612072565b500390565b60005b83811015611ff7578181015183820152602001611fdf565b83811115610b145750506000910152565b600181811c9082168061201c57607f821691505b6020821081141561203d57634e487b7160e01b600052602260045260246000fd5b50919050565b600060001982141561205757612057612072565b5060010190565b60008261206d5761206d612088565b500690565b634e487b7160e01b600052601160045260246000fd5b634e487b7160e01b600052601260045260246000fd5b634e487b7160e01b600052604160045260246000fd5b6001600160e01b0319811681146120ca57600080fd5b5056fe646174613a696d6167652f7376672b786d6c3b6261736536342c50484e325a79423361575230614430694d5441774969426f5a576c6e61485139496a45774d434967646d6c6c64304a76654430694d434177494445774d4341784d44416949475a7062477739496d3576626d5569494868746247357a50534a6f644852774f693876643364334c6e637a4c6d39795a7938794d4441774c334e325a79492b50484a6c5933516764326c6b64476739496a45774d434967614756705a326830505349784d44416949475a7062477739496d4a7359574e724969382b50474e70636d4e735a53426a654430694e54416949474e35505349314d434967636a30694d6a556949475a7062477739496e646f6158526c4969382b5043397a646d632ba264697066735822122012865ac617254c6a1519e5c1dc120f17c9f06d02bbd6ffeb3523e6d52443de9464736f6c63430008040033",
  "linkReferences": {},
  "deployedLinkReferences": {}
}