{
  "_format": "hh-sol-artifact-1",
  "contractName": "FLIP",
  "sourceName": "contracts/FLIP.sol",
  "abi": [
    {
      "inputs": [],
      "stateMutability": "nonpayable",
      "type": "constructor"
    },
    {
      "anonymous": false,
      "inputs": [
        {
          "indexed": true,
          "internalType": "address",
          "name": "owner",
          "type": "address"
        },
        {
          "indexed": true,
          "internalType": "address",
          "name": "spender",
          "type": "address"
        },
        {
          "indexed": false,
          "internalType": "uint256",
          "name": "value",
          "type": "uint256"
        }
      ],
      "name": "Approval",
      "type": "event"
    },
    {
      "anonymous": false,
      "inputs": [
        {
          "indexed": true,
          "internalType": "address",
          "name": "from",
          "type": "address"
        },
        {
          "indexed": true,
          "internalType": "address",
          "name": "to",
          "type": "address"
        },
        {
          "indexed": false,
          "internalType": "uint256",
          "name": "value",
          "type": "uint256"
        }
      ],
      "name": "Transfer",
      "type": "event"
    },
    {
      "anonymous": false,
      "inputs": [
        {
          "indexed": true,
          "internalType": "address",
          "name": "from",
          "type": "address"
        },
        {
          "indexed": true,
          "internalType": "address",
          "name": "to",
          "type": "address"
        },
        {
          "indexed": false,
          "internalType": "uint256",
          "name": "value",
          "type": "uint256"
        }
      ],
      "name": "TransferLocked",
      "type": "event"
    },
    {
      "anonymous": false,
      "inputs": [
        {
          "indexed": true,
          "internalType": "address",
          "name": "from",
          "type": "address"
        },
        {
          "indexed": true,
          "internalType": "address",
          "name": "to",
          "type": "address"
        },
        {
          "indexed": false,
          "internalType": "uint256",
          "name": "value",
          "type": "uint256"
        }
      ],
      "name": "TransferUnlocked",
      "type": "event"
    },
    {
      "inputs": [],
      "name": "MAX_SUPPLY",
      "outputs": [
        {
          "internalType": "uint256",
          "name": "",
          "type": "uint256"
        }
      ],
      "stateMutability": "view",
      "type": "function"
    },
    {
      "inputs": [
        {
          "internalType": "address",
          "name": "owner",
          "type": "address"
        },
        {
          "internalType": "address",
          "name": "spender",
          "type": "address"
        }
      ],
      "name": "allowance",
      "outputs": [
        {
          "internalType": "uint256",
          "name": "",
          "type": "uint256"
        }
      ],
      "stateMutability": "view",
      "type": "function"
    },
    {
      "inputs": [
        {
          "internalType": "address",
          "name": "spender",
          "type": "address"
        },
        {
          "internalType": "uint256",
          "name": "amount",
          "type": "uint256"
        }
      ],
      "name": "approve",
      "outputs": [
        {
          "internalType": "bool",
          "name": "",
          "type": "bool"
        }
      ],
      "stateMutability": "nonpayable",
      "type": "function"
    },
    {
      "inputs": [
        {
          "internalType": "address",
          "name": "account",
          "type": "address"
        }
      ],
      "name": "balanceOf",
      "outputs": [
        {
          "internalType": "uint256",
          "name": "",
          "type": "uint256"
        }
      ],
      "stateMutability": "view",
      "type": "function"
    },
    {
      "inputs": [
        {
          "internalType": "address",
          "name": "newOwner",
          "type": "address"
        }
      ],
      "name": "changeOwner",
      "outputs": [],
      "stateMutability": "nonpayable",
      "type": "function"
    },
    {
      "inputs": [],
      "name": "decimals",
      "outputs": [
        {
          "internalType": "uint8",
          "name": "",
          "type": "uint8"
        }
      ],
      "stateMutability": "view",
      "type": "function"
    },
    {
      "inputs": [
        {
          "internalType": "address",
          "name": "spender",
          "type": "address"
        },
        {
          "internalType": "uint256",
          "name": "subtractedValue",
          "type": "uint256"
        }
      ],
      "name": "decreaseAllowance",
      "outputs": [
        {
          "internalType": "bool",
          "name": "",
          "type": "bool"
        }
      ],
      "stateMutability": "nonpayable",
      "type": "function"
    },
    {
      "inputs": [
        {
          "internalType": "address",
          "name": "account",
          "type": "address"
        },
        {
          "internalType": "uint256",
          "name": "tokenId",
          "type": "uint256"
        }
      ],
      "name": "getLockedBalance",
      "outputs": [
        {
          "internalType": "uint256",
          "name": "",
          "type": "uint256"
        }
      ],
      "stateMutability": "view",
      "type": "function"
    },
    {
      "inputs": [
        {
          "internalType": "address",
          "name": "spender",
          "type": "address"
        },
        {
          "internalType": "uint256",
          "name": "addedValue",
          "type": "uint256"
        }
      ],
      "name": "increaseAllowance",
      "outputs": [
        {
          "internalType": "bool",
          "name": "",
          "type": "bool"
        }
      ],
      "stateMutability": "nonpayable",
      "type": "function"
    },
    {
      "inputs": [
        {
          "internalType": "address",
          "name": "",
          "type": "address"
        },
        {
          "internalType": "uint256",
          "name": "",
          "type": "uint256"
        }
      ],
      "name": "lockedBalanceOf",
      "outputs": [
        {
          "internalType": "uint256",
          "name": "",
          "type": "uint256"
        }
      ],
      "stateMutability": "view",
      "type": "function"
    },
    {
      "inputs": [],
      "name": "lockedSupply",
      "outputs": [
        {
          "internalType": "uint256",
          "name": "",
          "type": "uint256"
        }
      ],
      "stateMutability": "view",
      "type": "function"
    },
    {
      "inputs": [
        {
          "internalType": "address",
          "name": "recipient",
          "type": "address"
        },
        {
          "internalType": "uint256",
          "name": "tokenId",
          "type": "uint256"
        },
        {
          "internalType": "uint256",
          "name": "tokenAmount",
          "type": "uint256"
        }
      ],
      "name": "mintLocked",
      "outputs": [],
      "stateMutability": "nonpayable",
      "type": "function"
    },
    {
      "inputs": [],
      "name": "name",
      "outputs": [
        {
          "internalType": "string",
          "name": "",
          "type": "string"
        }
      ],
      "stateMutability": "view",
      "type": "function"
    },
    {
      "inputs": [],
      "name": "owner",
      "outputs": [
        {
          "internalType": "address",
          "name": "",
          "type": "address"
        }
      ],
      "stateMutability": "view",
      "type": "function"
    },
    {
      "inputs": [],
      "name": "symbol",
      "outputs": [
        {
          "internalType": "string",
          "name": "",
          "type": "string"
        }
      ],
      "stateMutability": "view",
      "type": "function"
    },
    {
      "inputs": [],
      "name": "totalSupply",
      "outputs": [
        {
          "internalType": "uint256",
          "name": "",
          "type": "uint256"
        }
      ],
      "stateMutability": "view",
      "type": "function"
    },
    {
      "inputs": [
        {
          "internalType": "address",
          "name": "to",
          "type": "address"
        },
        {
          "internalType": "uint256",
          "name": "amount",
          "type": "uint256"
        }
      ],
      "name": "transfer",
      "outputs": [
        {
          "internalType": "bool",
          "name": "",
          "type": "bool"
        }
      ],
      "stateMutability": "nonpayable",
      "type": "function"
    },
    {
      "inputs": [
        {
          "internalType": "address",
          "name": "from",
          "type": "address"
        },
        {
          "internalType": "address",
          "name": "to",
          "type": "address"
        },
        {
          "internalType": "uint256",
          "name": "amount",
          "type": "uint256"
        }
      ],
      "name": "transferFrom",
      "outputs": [
        {
          "internalType": "bool",
          "name": "",
          "type": "bool"
        }
      ],
      "stateMutability": "nonpayable",
      "type": "function"
    },
    {
      "inputs": [
        {
          "internalType": "address",
          "name": "recipient",
          "type": "address"
        },
        {
          "internalType": "uint256",
          "name": "tokenId",
          "type": "uint256"
        }
      ],
      "name": "unlockAndTransfer",
      "outputs": [],
      "stateMutability": "nonpayable",
      "type": "function"
    },
    {
      "inputs": [],
      "name": "unlockedSupply",
      "outputs": [
        {
          "internalType": "uint256",
          "name": "",
          "type": "uint256"
        }
      ],
      "stateMutability": "view",
      "type": "function"
    }
  ],
  "bytecode": "0x60806040523480156200001157600080fd5b506040805180820182526009815268466c697070616e646f60b81b6020808301918252835180850190945260048452630464c49560e41b9084015281519192916200005f9160039162000090565b5080516200007590600490602084019062000090565b5050600880546001600160a01b031916331790555062000173565b8280546200009e9062000136565b90600052602060002090601f016020900481019282620000c257600085556200010d565b82601f10620000dd57805160ff19168380011785556200010d565b828001600101855582156200010d579182015b828111156200010d578251825591602001919060010190620000f0565b506200011b9291506200011f565b5090565b5b808211156200011b576000815560010162000120565b600181811c908216806200014b57607f821691505b602082108114156200016d57634e487b7160e01b600052602260045260246000fd5b50919050565b610f4a80620001836000396000f3fe608060405234801561001057600080fd5b506004361061010c5760003560e01c80638da5cb5b1161009d5780638da5cb5b1461021f5780638ef4c8071461024a57806395d89b4114610275578063a457c2d71461027d578063a6f9dae114610290578063a9059cbb146102a3578063ca5c7b91146102b6578063dc5fb000146102bf578063dd62ed3e146102d2578063fd3d27b8146102e557600080fd5b806306fdde0314610111578063095ea7b31461012f57806318160ddd1461015257806323b872dd14610164578063313ce5671461017757806332cb6b0c14610186578063395093511461019857806370a08231146101ab57806370c88be8146101d45780638778f5901461020a575b600080fd5b6101196102ee565b6040516101269190610ce9565b60405180910390f35b61014261013d366004610c8e565b610380565b6040519015158152602001610126565b6002545b604051908152602001610126565b610142610172366004610c53565b61039a565b60405160128152602001610126565b610156676765c793fa10079d601b1b81565b6101426101a6366004610c8e565b6103be565b6101566101b9366004610c00565b6001600160a01b031660009081526020819052604090205490565b6101566101e2366004610c8e565b6001600160a01b03919091166000908152600760209081526040808320938352929052205490565b61021d610218366004610cb7565b6103e0565b005b600854610232906001600160a01b031681565b6040516001600160a01b039091168152602001610126565b610156610258366004610c8e565b600760209081526000928352604080842090915290825290205481565b61011961052e565b61014261028b366004610c8e565b61053d565b61021d61029e366004610c00565b6105b8565b6101426102b1366004610c8e565b610604565b61015660055481565b61021d6102cd366004610c8e565b610612565b6101566102e0366004610c21565b610776565b61015660065481565b6060600380546102fd90610ec3565b80601f016020809104026020016040519081016040528092919081815260200182805461032990610ec3565b80156103765780601f1061034b57610100808354040283529160200191610376565b820191906000526020600020905b81548152906001019060200180831161035957829003601f168201915b5050505050905090565b60003361038e8185856107a1565b60019150505b92915050565b6000336103a88582856108bd565b6103b3858585610937565b506001949350505050565b60003361038e8185856103d18383610776565b6103db9190610d8a565b6107a1565b6008546001600160a01b031633146104135760405162461bcd60e51b815260040161040a90610d3c565b60405180910390fd5b676765c793fa10079d601b1b61042860025490565b1061046e5760405162461bcd60e51b815260206004820152601660248201527513585e1a5b5d5b481cdd5c1c1b1e481c995858da195960521b604482015260640161040a565b600061047c6012600a610de5565b6104869083610e8d565b6001600160a01b03851660009081526007602090815260408083208784529091528120805492935083929091906104be908490610d8a565b9250508190555080600560008282546104d79190610d8a565b909155506104e790503082610b05565b6040518181526001600160a01b038516906000907f5317ebfc0ec3457aaee1706ade06359db30a72c13fc9e937354e852bd9e43df99060200160405180910390a350505050565b6060600480546102fd90610ec3565b6000338161054b8286610776565b9050838110156105ab5760405162461bcd60e51b815260206004820152602560248201527f45524332303a2064656372656173656420616c6c6f77616e63652062656c6f77604482015264207a65726f60d81b606482015260840161040a565b6103b382868684036107a1565b6008546001600160a01b031633146105e25760405162461bcd60e51b815260040161040a90610d3c565b600880546001600160a01b0319166001600160a01b0392909216919091179055565b60003361038e818585610937565b6008546001600160a01b0316331461063c5760405162461bcd60e51b815260040161040a90610d3c565b6001600160a01b03821660009081526007602090815260408083208484529091529020546106ca5760405162461bcd60e51b815260206004820152603560248201527f526563697069656e7420686173206e6f206c6f636b65642062616c616e636520604482015274199bdc881d1a194819da5d995b881d1bdad95b9259605a1b606482015260840161040a565b6001600160a01b038216600090815260076020908152604080832084845290915281208054908290556005805491928392610706908490610eac565b92505081905550806006600082825461071f9190610d8a565b909155506107309050308483610937565b6040518181526001600160a01b0384169030907fe4ee0dce9fe455ecbb2ab237807e12053174faca579e0489f8198a48bcf045f1906020015b60405180910390a3505050565b6001600160a01b03918216600090815260016020908152604080832093909416825291909152205490565b6001600160a01b0383166108035760405162461bcd60e51b8152602060048201526024808201527f45524332303a20617070726f76652066726f6d20746865207a65726f206164646044820152637265737360e01b606482015260840161040a565b6001600160a01b0382166108645760405162461bcd60e51b815260206004820152602260248201527f45524332303a20617070726f766520746f20746865207a65726f206164647265604482015261737360f01b606482015260840161040a565b6001600160a01b0383811660008181526001602090815260408083209487168084529482529182902085905590518481527f8c5be1e5ebec7d5bd14f71427d1e84f3dd0314c0f7b2291e5b200ac8c7c3b9259101610769565b60006108c98484610776565b9050600019811461093157818110156109245760405162461bcd60e51b815260206004820152601d60248201527f45524332303a20696e73756666696369656e7420616c6c6f77616e6365000000604482015260640161040a565b61093184848484036107a1565b50505050565b6001600160a01b03831661099b5760405162461bcd60e51b815260206004820152602560248201527f45524332303a207472616e736665722066726f6d20746865207a65726f206164604482015264647265737360d81b606482015260840161040a565b6001600160a01b0382166109fd5760405162461bcd60e51b815260206004820152602360248201527f45524332303a207472616e7366657220746f20746865207a65726f206164647260448201526265737360e81b606482015260840161040a565b6001600160a01b03831660009081526020819052604090205481811015610a755760405162461bcd60e51b815260206004820152602660248201527f45524332303a207472616e7366657220616d6f756e7420657863656564732062604482015265616c616e636560d01b606482015260840161040a565b6001600160a01b03808516600090815260208190526040808220858503905591851681529081208054849290610aac908490610d8a565b92505081905550826001600160a01b0316846001600160a01b03167fddf252ad1be2c89b69c2b068fc378daa952ba7f163c4a11628f55a4df523b3ef84604051610af891815260200190565b60405180910390a3610931565b6001600160a01b038216610b5b5760405162461bcd60e51b815260206004820152601f60248201527f45524332303a206d696e7420746f20746865207a65726f206164647265737300604482015260640161040a565b8060026000828254610b6d9190610d8a565b90915550506001600160a01b03821660009081526020819052604081208054839290610b9a908490610d8a565b90915550506040518181526001600160a01b038316906000907fddf252ad1be2c89b69c2b068fc378daa952ba7f163c4a11628f55a4df523b3ef9060200160405180910390a35050565b80356001600160a01b0381168114610bfb57600080fd5b919050565b600060208284031215610c11578081fd5b610c1a82610be4565b9392505050565b60008060408385031215610c33578081fd5b610c3c83610be4565b9150610c4a60208401610be4565b90509250929050565b600080600060608486031215610c67578081fd5b610c7084610be4565b9250610c7e60208501610be4565b9150604084013590509250925092565b60008060408385031215610ca0578182fd5b610ca983610be4565b946020939093013593505050565b600080600060608486031215610ccb578283fd5b610cd484610be4565b95602085013595506040909401359392505050565b6000602080835283518082850152825b81811015610d1557858101830151858201604001528201610cf9565b81811115610d265783604083870101525b50601f01601f1916929092016040019392505050565b6020808252602e908201527f4f6e6c792074686520636f6e7472616374206f776e65722063616e2063616c6c60408201526d103a3434b990333ab731ba34b7b760911b606082015260800190565b60008219821115610d9d57610d9d610efe565b500190565b600181815b80851115610ddd578160001904821115610dc357610dc3610efe565b80851615610dd057918102915b93841c9390800290610da7565b509250929050565b6000610c1a8383600082610dfb57506001610394565b81610e0857506000610394565b8160018114610e1e5760028114610e2857610e44565b6001915050610394565b60ff841115610e3957610e39610efe565b50506001821b610394565b5060208310610133831016604e8410600b8410161715610e67575081810a610394565b610e718383610da2565b8060001904821115610e8557610e85610efe565b029392505050565b6000816000190483118215151615610ea757610ea7610efe565b500290565b600082821015610ebe57610ebe610efe565b500390565b600181811c90821680610ed757607f821691505b60208210811415610ef857634e487b7160e01b600052602260045260246000fd5b50919050565b634e487b7160e01b600052601160045260246000fdfea2646970667358221220930fb06a78ce9198632d41a0091d01f366cbc946877d5eadf5f60f4521e37b6064736f6c63430008040033",
  "linkReferences": {},
  "deployedLinkReferences": {}
}